{
  "_format": "hh-sol-artifact-1",
  "contractName": "CCMonitorsGov",
  "sourceName": "contracts/CCMonitorsGov.sol",
  "abi": [
    {
      "inputs": [
        {
          "internalType": "address",
          "name": "operatorsGovAddr",
          "type": "address"
        }
      ],
      "stateMutability": "nonpayable",
      "type": "constructor"
    },
    {
      "anonymous": false,
      "inputs": [
        {
          "indexed": true,
          "internalType": "address",
          "name": "candidate",
          "type": "address"
        },
        {
          "indexed": false,
          "internalType": "uint256",
          "name": "pubkeyPrefix",
          "type": "uint256"
        },
        {
          "indexed": false,
          "internalType": "bytes32",
          "name": "pubkeyX",
          "type": "bytes32"
        },
        {
          "indexed": false,
          "internalType": "bytes32",
          "name": "intro",
          "type": "bytes32"
        },
        {
          "indexed": false,
          "internalType": "uint256",
          "name": "stakedAmt",
          "type": "uint256"
        }
      ],
      "name": "MonitorApply",
      "type": "event"
    },
    {
      "anonymous": false,
      "inputs": [
        {
          "indexed": true,
          "internalType": "address",
          "name": "candidate",
          "type": "address"
        },
        {
          "indexed": false,
          "internalType": "uint256",
          "name": "amt",
          "type": "uint256"
        }
      ],
      "name": "MonitorStake",
      "type": "event"
    },
    {
      "anonymous": false,
      "inputs": [
        {
          "indexed": true,
          "internalType": "address",
          "name": "candidate",
          "type": "address"
        },
        {
          "indexed": false,
          "internalType": "uint256",
          "name": "amt",
          "type": "uint256"
        }
      ],
      "name": "MonitorUnstake",
      "type": "event"
    },
    {
      "anonymous": false,
      "inputs": [
        {
          "indexed": true,
          "internalType": "address",
          "name": "candidate",
          "type": "address"
        },
        {
          "indexed": false,
          "internalType": "address",
          "name": "operator",
          "type": "address"
        }
      ],
      "name": "NominatedBy",
      "type": "event"
    },
    {
      "anonymous": false,
      "inputs": [
        {
          "indexed": true,
          "internalType": "address",
          "name": "previousOwner",
          "type": "address"
        },
        {
          "indexed": true,
          "internalType": "address",
          "name": "newOwner",
          "type": "address"
        }
      ],
      "name": "OwnershipTransferred",
      "type": "event"
    },
    {
      "inputs": [
        {
          "internalType": "address",
          "name": "addr",
          "type": "address"
        }
      ],
      "name": "addStake",
      "outputs": [],
      "stateMutability": "payable",
      "type": "function"
    },
    {
      "inputs": [
        {
          "internalType": "uint8",
          "name": "pubkeyPrefix",
          "type": "uint8"
        },
        {
          "internalType": "bytes32",
          "name": "pubkeyX",
          "type": "bytes32"
        },
        {
          "internalType": "bytes32",
          "name": "intro",
          "type": "bytes32"
        }
      ],
      "name": "applyMonitor",
      "outputs": [],
      "stateMutability": "payable",
      "type": "function"
    },
    {
      "inputs": [
        {
          "internalType": "address",
          "name": "addr",
          "type": "address"
        }
      ],
      "name": "getNominatedBy",
      "outputs": [
        {
          "internalType": "address[]",
          "name": "",
          "type": "address[]"
        }
      ],
      "stateMutability": "view",
      "type": "function"
    },
    {
      "inputs": [
        {
          "components": [
            {
              "internalType": "address",
              "name": "addr",
              "type": "address"
            },
            {
              "internalType": "uint256",
              "name": "pubkeyPrefix",
              "type": "uint256"
            },
            {
              "internalType": "bytes32",
              "name": "pubkeyX",
              "type": "bytes32"
            },
            {
              "internalType": "bytes32",
              "name": "intro",
              "type": "bytes32"
            },
            {
              "internalType": "uint256",
              "name": "stakedAmt",
              "type": "uint256"
            },
            {
              "internalType": "uint256",
              "name": "electedTime",
              "type": "uint256"
            },
            {
              "internalType": "uint256",
              "name": "oldElectedTime",
              "type": "uint256"
            },
            {
              "internalType": "address[]",
              "name": "nominatedBy",
              "type": "address[]"
            }
          ],
          "internalType": "struct MonitorInfo[]",
          "name": "monitorList",
          "type": "tuple[]"
        }
      ],
      "name": "init",
      "outputs": [],
      "stateMutability": "nonpayable",
      "type": "function"
    },
    {
      "inputs": [
        {
          "internalType": "address",
          "name": "addr",
          "type": "address"
        }
      ],
      "name": "isMonitor",
      "outputs": [
        {
          "internalType": "bool",
          "name": "",
          "type": "bool"
        }
      ],
      "stateMutability": "view",
      "type": "function"
    },
    {
      "inputs": [],
      "name": "lastElectionTime",
      "outputs": [
        {
          "internalType": "uint256",
          "name": "",
          "type": "uint256"
        }
      ],
      "stateMutability": "view",
      "type": "function"
    },
    {
      "inputs": [
        {
          "internalType": "uint256",
          "name": "",
          "type": "uint256"
        }
      ],
      "name": "monitors",
      "outputs": [
        {
          "internalType": "address",
          "name": "addr",
          "type": "address"
        },
        {
          "internalType": "uint256",
          "name": "pubkeyPrefix",
          "type": "uint256"
        },
        {
          "internalType": "bytes32",
          "name": "pubkeyX",
          "type": "bytes32"
        },
        {
          "internalType": "bytes32",
          "name": "intro",
          "type": "bytes32"
        },
        {
          "internalType": "uint256",
          "name": "stakedAmt",
          "type": "uint256"
        },
        {
          "internalType": "uint256",
          "name": "electedTime",
          "type": "uint256"
        },
        {
          "internalType": "uint256",
          "name": "oldElectedTime",
          "type": "uint256"
        }
      ],
      "stateMutability": "view",
      "type": "function"
    },
    {
      "inputs": [
        {
          "internalType": "address",
          "name": "addr",
          "type": "address"
        }
      ],
      "name": "nominateMonitor",
      "outputs": [],
      "stateMutability": "nonpayable",
      "type": "function"
    },
    {
      "inputs": [],
      "name": "owner",
      "outputs": [
        {
          "internalType": "address",
          "name": "",
          "type": "address"
        }
      ],
      "stateMutability": "view",
      "type": "function"
    },
    {
      "inputs": [
        {
          "internalType": "uint256",
          "name": "amt",
          "type": "uint256"
        }
      ],
      "name": "removeStake",
      "outputs": [],
      "stateMutability": "nonpayable",
      "type": "function"
    },
    {
      "inputs": [],
      "name": "renounceOwnership",
      "outputs": [],
      "stateMutability": "nonpayable",
      "type": "function"
    },
    {
      "inputs": [
        {
          "internalType": "address",
          "name": "newOwner",
          "type": "address"
        }
      ],
      "name": "transferOwnership",
      "outputs": [],
      "stateMutability": "nonpayable",
      "type": "function"
    }
  ],
  "bytecode": "0x60a060405234801561001057600080fd5b5060405161190a38038061190a83398101604081905261002f91610099565b61003833610049565b6001600160a01b03166080526100c9565b600080546001600160a01b038381166001600160a01b0319831681178455604051919092169283917f8be0079c531659141344cd1fd0a4f28419497f9722a3daafe3b4186f6b6457e09190a35050565b6000602082840312156100ab57600080fd5b81516001600160a01b03811681146100c257600080fd5b9392505050565b6080516118266100e460003960006103ff01526118266000f3fe6080604052600436106100a75760003560e01c80636d989858116100645780636d989858146101b9578063715018a6146101cc5780638da5cb5b146101e1578063939624ab14610209578063e473696314610229578063f2fde38b1461025657600080fd5b80630eb1b586146100ac57806310767904146100d5578063122b8cbb146100ea57806324500eb11461010a57806344a587811461012a578063562aa20114610189575b600080fd5b3480156100b857600080fd5b506100c260015481565b6040519081526020015b60405180910390f35b6100e86100e33660046113cd565b610276565b005b3480156100f657600080fd5b506100e86101053660046114f6565b610327565b34801561011657600080fd5b506100e86101253660046113cd565b6103ea565b34801561013657600080fd5b5061014a610145366004611633565b6105b6565b604080516001600160a01b0390981688526020880196909652948601939093526060850191909152608084015260a083015260c082015260e0016100cc565b34801561019557600080fd5b506101a96101a43660046113cd565b61060f565b60405190151581526020016100cc565b6100e86101c736600461164c565b61068e565b3480156101d857600080fd5b506100e86106ef565b3480156101ed57600080fd5b506000546040516001600160a01b0390911681526020016100cc565b34801561021557600080fd5b506100e8610224366004611633565b610703565b34801561023557600080fd5b506102496102443660046113cd565b6108c4565b6040516100cc9190611687565b34801561026257600080fd5b506100e86102713660046113cd565b610934565b6000610281826109ad565b509050600034116102cb5760405162461bcd60e51b815260206004820152600f60248201526e6465706f7369742d6e6f7468696e6760881b60448201526064015b60405180910390fd5b348160040160008282546102df91906116ea565b90915550506040513481526001600160a01b038316907fb218e74e1d7548db0bff4bc81f75f5b5d41d66cf9151f0311fbcb7344bd9d033906020015b60405180910390a25050565b61032f610a7f565b600254156103755760405162461bcd60e51b8152602060048201526013602482015272185b1c9958591e4b5a5b9a5d1a585b1a5e9959606a1b60448201526064016102c2565b60005b81518110156103e657600082828151811061039557610395611703565b602002602001015190506103b181600001518260800151610ad9565b6103d38160000151826020015183604001518460600151856080015142610ae7565b50806103de81611719565b915050610378565b5050565b6040516336b87bd760e11b81523360048201527f00000000000000000000000000000000000000000000000000000000000000006001600160a01b031690636d70f7ae90602401602060405180830381865afa15801561044e573d6000803e3d6000fd5b505050506040513d601f19601f820116820180604052508101906104729190611732565b6104ad5760405162461bcd60e51b815260206004820152600c60248201526b3737ba16b7b832b930ba37b960a11b60448201526064016102c2565b60006104b8826109ad565b50905060005b600782015481101561055157336001600160a01b03168260070182815481106104e9576104e9611703565b6000918252602090912001546001600160a01b03160361053f5760405162461bcd60e51b8152602060048201526011602482015270185b1c9958591e4b5b9bdb5a5b985d1959607a1b60448201526064016102c2565b8061054981611719565b9150506104be565b5060078101805460018101825560009182526020918290200180546001600160a01b031916339081179091556040519081526001600160a01b038416917faa7a281d3036b8a4b28c44a211e3eabaf4b0549f072186b915b819c7b619bd74910161031b565b600281815481106105c657600080fd5b600091825260209091206008909102018054600182015460028301546003840154600485015460058601546006909601546001600160a01b039095169650929491939092919087565b600254600090810361062357506000919050565b6001600160a01b038216600090815260036020526040812054600280549192918390811061065357610653611703565b6000918252602090912060089091020180549091506001600160a01b038581169116148015610686575060008160050154115b949350505050565b61069d33848484346000610ae7565b6040805160ff851681526020810184905290810182905234606082015233907f3ca1553e5e289d81faa2afbcf3f32d4df4c14526b7e2a81cd1bb25d1b1415b5d906080015b60405180910390a2505050565b6106f7610a7f565b6107016000610f56565b565b60008061070f336109ad565b91509150828260040154101561075b5760405162461bcd60e51b81526020600482015260116024820152700eed2e8d0c8e4c2ee5ae8dede5adaeac6d607b1b60448201526064016102c2565b8282600401600082825461076f9190611754565b9091555050600482015467016345785d8a000011156107ce576005820154156107ce5760405162461bcd60e51b81526020600482015260116024820152706d6f6e69746f722d69732d61637469766560781b60448201526064016102c2565b816004015460000361088857600281815481106107ed576107ed611703565b60009182526020822060089091020180546001600160a01b0319168155600181018290556002810182905560038101829055600481018290556005810182905560068101829055906108426007830182611319565b50503360009081526003602052604081208190556004805460018101825591527f8a35acfbc15ff81a39ae7d344fd709f28e8600b4aa8c65c6b64bfe7fe36bd19b018190555b6108923384610fa6565b60405183815233907f551255bcb3977c75cd031d9bc6d8233f1491dd8bcfe857b996b0afb99b5c3d39906020016106e2565b606060006108d1836109ad565b506007810180546040805160208084028201810190925282815293945083018282801561092757602002820191906000526020600020905b81546001600160a01b03168152600190910190602001808311610909575b5050505050915050919050565b61093c610a7f565b6001600160a01b0381166109a15760405162461bcd60e51b815260206004820152602660248201527f4f776e61626c653a206e6577206f776e657220697320746865207a65726f206160448201526564647265737360d01b60648201526084016102c2565b6109aa81610f56565b50565b60025460009081906109ef5760405162461bcd60e51b815260206004820152600b60248201526a3737ba16b6b7b734ba37b960a91b60448201526064016102c2565b506001600160a01b0382166000908152600360205260409020546002805482908110610a1d57610a1d611703565b6000918252602090912060089091020180549092506001600160a01b03848116911614610a7a5760405162461bcd60e51b815260206004820152600b60248201526a3737ba16b6b7b734ba37b960a91b60448201526064016102c2565b915091565b6000546001600160a01b031633146107015760405162461bcd60e51b815260206004820181905260248201527f4f776e61626c653a2063616c6c6572206973206e6f7420746865206f776e657260448201526064016102c2565b6103e66127118330846110c4565b8460ff1660021480610afc57508460ff166003145b610b405760405162461bcd60e51b81526020600482015260156024820152740d2dcecc2d8d2c85ae0eac4d6caf25ae0e4caccd2f605b1b60448201526064016102c2565b67016345785d8a0000821015610b8b5760405162461bcd60e51b815260206004820152601060248201526f6465706f7369742d746f6f2d6c65737360801b60448201526064016102c2565b6001600160a01b0386166000908152600360205260409020548015610be45760405162461bcd60e51b815260206004820152600f60248201526e1b5bdb9a5d1bdc8b595e1a5cdd1959608a1b60448201526064016102c2565b60025415610c6357866001600160a01b03166002600081548110610c0a57610c0a611703565b60009182526020909120600890910201546001600160a01b031603610c635760405162461bcd60e51b815260206004820152600f60248201526e1b5bdb9a5d1bdc8b595e1a5cdd1959608a1b60448201526064016102c2565b60045415610e08576004805460009190610c7f90600190611754565b81548110610c8f57610c8f611703565b906000526020600020015490506004805480610cad57610cad611767565b60019003818190600052602060002001600090559055604051806101000160405280896001600160a01b031681526020018860ff16815260200187815260200186815260200185815260200184815260200160008152602001600067ffffffffffffffff811115610d2057610d206113ef565b604051908082528060200260200182016040528015610d49578160200160208202803683370190505b5081525060028281548110610d6057610d60611703565b600091825260209182902083516008929092020180546001600160a01b0319166001600160a01b0390921691909117815582820151600182015560408301516002820155606083015160038201556080830151600482015560a0830151600582015560c0830151600682015560e083015180519192610de792600785019290910190611337565b5050506001600160a01b038816600090815260036020526040902055610f4d565b6002604051806101000160405280896001600160a01b031681526020018860ff16815260200187815260200186815260200185815260200184815260200160008152602001600067ffffffffffffffff811115610e6757610e676113ef565b604051908082528060200260200182016040528015610e90578160200160208202803683370190505b5090528154600180820184556000938452602093849020835160089093020180546001600160a01b0319166001600160a01b03909316929092178255828401519082015560408201516002820155606082015160038201556080820151600482015560a0820151600582015560c0820151600682015560e0820151805192939192610f219260078501920190611337565b5050600254610f339150600190611754565b6001600160a01b0388166000908152600360205260409020555b50505050505050565b600080546001600160a01b038381166001600160a01b0319831681178455604051919092169283917f8be0079c531659141344cd1fd0a4f28419497f9722a3daafe3b4186f6b6457e09190a35050565b80471015610ff65760405162461bcd60e51b815260206004820152601d60248201527f416464726573733a20696e73756666696369656e742062616c616e636500000060448201526064016102c2565b6000826001600160a01b03168260405160006040518083038185875af1925050503d8060008114611043576040519150601f19603f3d011682016040523d82523d6000602084013e611048565b606091505b50509050806110bf5760405162461bcd60e51b815260206004820152603a60248201527f416464726573733a20756e61626c6520746f2073656e642076616c75652c207260448201527f6563697069656e74206d6179206861766520726576657274656400000000000060648201526084016102c2565b505050565b604080516001600160a01b0385811660248301528416604482015260648082018490528251808303909101815260849091019091526020810180516001600160e01b03166323b872dd60e01b17905261111e908590611124565b50505050565b6000611179826040518060400160405280602081526020017f5361666545524332303a206c6f772d6c6576656c2063616c6c206661696c6564815250856001600160a01b03166111f69092919063ffffffff16565b8051909150156110bf57808060200190518101906111979190611732565b6110bf5760405162461bcd60e51b815260206004820152602a60248201527f5361666545524332303a204552433230206f7065726174696f6e20646964206e6044820152691bdd081cdd58d8d9595960b21b60648201526084016102c2565b6060610686848460008585600080866001600160a01b0316858760405161121d91906117a1565b60006040518083038185875af1925050503d806000811461125a576040519150601f19603f3d011682016040523d82523d6000602084013e61125f565b606091505b50915091506112708783838761127b565b979650505050505050565b606083156112ea5782516000036112e3576001600160a01b0385163b6112e35760405162461bcd60e51b815260206004820152601d60248201527f416464726573733a2063616c6c20746f206e6f6e2d636f6e747261637400000060448201526064016102c2565b5081610686565b61068683838151156112ff5781518083602001fd5b8060405162461bcd60e51b81526004016102c291906117bd565b50805460008255906000526020600020908101906109aa919061139c565b82805482825590600052602060002090810192821561138c579160200282015b8281111561138c57825182546001600160a01b0319166001600160a01b03909116178255602090920191600190910190611357565b5061139892915061139c565b5090565b5b80821115611398576000815560010161139d565b80356001600160a01b03811681146113c857600080fd5b919050565b6000602082840312156113df57600080fd5b6113e8826113b1565b9392505050565b634e487b7160e01b600052604160045260246000fd5b604051610100810167ffffffffffffffff81118282101715611429576114296113ef565b60405290565b604051601f8201601f1916810167ffffffffffffffff81118282101715611458576114586113ef565b604052919050565b600067ffffffffffffffff82111561147a5761147a6113ef565b5060051b60200190565b600082601f83011261149557600080fd5b813560206114aa6114a583611460565b61142f565b82815260059290921b840181019181810190868411156114c957600080fd5b8286015b848110156114eb576114de816113b1565b83529183019183016114cd565b509695505050505050565b6000602080838503121561150957600080fd5b823567ffffffffffffffff8082111561152157600080fd5b818501915085601f83011261153557600080fd5b81356115436114a582611460565b81815260059190911b8301840190848101908883111561156257600080fd5b8585015b838110156116265780358581111561157e5760008081fd5b8601610100818c03601f19018113156115975760008081fd5b61159f611405565b6115aa8a84016113b1565b81526040808401358b830152606080850135828401526080915081850135818401525060a0808501358284015260c0915081850135818401525060e080850135828401528385013593508984111561160457600091508182fd5b6116128f8d86880101611484565b908301525085525050918601918601611566565b5098975050505050505050565b60006020828403121561164557600080fd5b5035919050565b60008060006060848603121561166157600080fd5b833560ff8116811461167257600080fd5b95602085013595506040909401359392505050565b6020808252825182820181905260009190848201906040850190845b818110156116c85783516001600160a01b0316835292840192918401916001016116a3565b50909695505050505050565b634e487b7160e01b600052601160045260246000fd5b808201808211156116fd576116fd6116d4565b92915050565b634e487b7160e01b600052603260045260246000fd5b60006001820161172b5761172b6116d4565b5060010190565b60006020828403121561174457600080fd5b815180151581146113e857600080fd5b818103818111156116fd576116fd6116d4565b634e487b7160e01b600052603160045260246000fd5b60005b83811015611798578181015183820152602001611780565b50506000910152565b600082516117b381846020870161177d565b9190910192915050565b60208152600082518060208401526117dc81604085016020870161177d565b601f01601f1916919091016040019291505056fea264697066735822122063bb38f329d49ecfee49bbf5c14b376781fcce122b0136af1444c8686cb090cc64736f6c63430008100033",
  "linkReferences": {},
  "deployedLinkReferences": {}
}