{
  "_format": "hh-sol-artifact-1",
  "contractName": "CCOperatorsGov",
  "sourceName": "contracts/CCOperatorsGov.sol",
  "abi": [
    {
      "anonymous": false,
      "inputs": [
        {
          "indexed": true,
          "internalType": "address",
          "name": "candidate",
          "type": "address"
        },
        {
          "indexed": false,
          "internalType": "uint256",
          "name": "pubkeyPrefix",
          "type": "uint256"
        },
        {
          "indexed": false,
          "internalType": "bytes32",
          "name": "pubkeyX",
          "type": "bytes32"
        },
        {
          "indexed": false,
          "internalType": "bytes32",
          "name": "rpcUrl",
          "type": "bytes32"
        },
        {
          "indexed": false,
          "internalType": "bytes32",
          "name": "intro",
          "type": "bytes32"
        },
        {
          "indexed": false,
          "internalType": "uint256",
          "name": "stakedAmt",
          "type": "uint256"
        }
      ],
      "name": "OperatorApply",
      "type": "event"
    },
    {
      "anonymous": false,
      "inputs": [
        {
          "indexed": true,
          "internalType": "address",
          "name": "candidate",
          "type": "address"
        },
        {
          "indexed": true,
          "internalType": "address",
          "name": "staker",
          "type": "address"
        },
        {
          "indexed": false,
          "internalType": "uint256",
          "name": "stakeId",
          "type": "uint256"
        },
        {
          "indexed": false,
          "internalType": "uint256",
          "name": "amt",
          "type": "uint256"
        }
      ],
      "name": "OperatorStake",
      "type": "event"
    },
    {
      "anonymous": false,
      "inputs": [
        {
          "indexed": true,
          "internalType": "address",
          "name": "candidate",
          "type": "address"
        },
        {
          "indexed": true,
          "internalType": "address",
          "name": "staker",
          "type": "address"
        },
        {
          "indexed": false,
          "internalType": "uint256",
          "name": "stakeId",
          "type": "uint256"
        },
        {
          "indexed": false,
          "internalType": "uint256",
          "name": "amt",
          "type": "uint256"
        }
      ],
      "name": "OperatorUnstake",
      "type": "event"
    },
    {
      "anonymous": false,
      "inputs": [
        {
          "indexed": true,
          "internalType": "address",
          "name": "previousOwner",
          "type": "address"
        },
        {
          "indexed": true,
          "internalType": "address",
          "name": "newOwner",
          "type": "address"
        }
      ],
      "name": "OwnershipTransferred",
      "type": "event"
    },
    {
      "inputs": [
        {
          "internalType": "uint8",
          "name": "pubkeyPrefix",
          "type": "uint8"
        },
        {
          "internalType": "bytes32",
          "name": "pubkeyX",
          "type": "bytes32"
        },
        {
          "internalType": "bytes32",
          "name": "rpcUrl",
          "type": "bytes32"
        },
        {
          "internalType": "bytes32",
          "name": "intro",
          "type": "bytes32"
        }
      ],
      "name": "applyOperator",
      "outputs": [],
      "stateMutability": "payable",
      "type": "function"
    },
    {
      "inputs": [
        {
          "components": [
            {
              "internalType": "address",
              "name": "addr",
              "type": "address"
            },
            {
              "internalType": "uint256",
              "name": "pubkeyPrefix",
              "type": "uint256"
            },
            {
              "internalType": "bytes32",
              "name": "pubkeyX",
              "type": "bytes32"
            },
            {
              "internalType": "bytes32",
              "name": "rpcUrl",
              "type": "bytes32"
            },
            {
              "internalType": "bytes32",
              "name": "intro",
              "type": "bytes32"
            },
            {
              "internalType": "uint256",
              "name": "totalStakedAmt",
              "type": "uint256"
            },
            {
              "internalType": "uint256",
              "name": "selfStakedAmt",
              "type": "uint256"
            },
            {
              "internalType": "uint256",
              "name": "electedTime",
              "type": "uint256"
            },
            {
              "internalType": "uint256",
              "name": "oldElectedTime",
              "type": "uint256"
            }
          ],
          "internalType": "struct OperatorInfo[]",
          "name": "opList",
          "type": "tuple[]"
        }
      ],
      "name": "init",
      "outputs": [],
      "stateMutability": "nonpayable",
      "type": "function"
    },
    {
      "inputs": [
        {
          "internalType": "address",
          "name": "addr",
          "type": "address"
        }
      ],
      "name": "isOperator",
      "outputs": [
        {
          "internalType": "bool",
          "name": "",
          "type": "bool"
        }
      ],
      "stateMutability": "view",
      "type": "function"
    },
    {
      "inputs": [],
      "name": "operatorAddrList",
      "outputs": [
        {
          "internalType": "address[]",
          "name": "",
          "type": "address[]"
        }
      ],
      "stateMutability": "view",
      "type": "function"
    },
    {
      "inputs": [
        {
          "internalType": "uint256",
          "name": "",
          "type": "uint256"
        }
      ],
      "name": "operators",
      "outputs": [
        {
          "internalType": "address",
          "name": "addr",
          "type": "address"
        },
        {
          "internalType": "uint256",
          "name": "pubkeyPrefix",
          "type": "uint256"
        },
        {
          "internalType": "bytes32",
          "name": "pubkeyX",
          "type": "bytes32"
        },
        {
          "internalType": "bytes32",
          "name": "rpcUrl",
          "type": "bytes32"
        },
        {
          "internalType": "bytes32",
          "name": "intro",
          "type": "bytes32"
        },
        {
          "internalType": "uint256",
          "name": "totalStakedAmt",
          "type": "uint256"
        },
        {
          "internalType": "uint256",
          "name": "selfStakedAmt",
          "type": "uint256"
        },
        {
          "internalType": "uint256",
          "name": "electedTime",
          "type": "uint256"
        },
        {
          "internalType": "uint256",
          "name": "oldElectedTime",
          "type": "uint256"
        }
      ],
      "stateMutability": "view",
      "type": "function"
    },
    {
      "inputs": [],
      "name": "owner",
      "outputs": [
        {
          "internalType": "address",
          "name": "",
          "type": "address"
        }
      ],
      "stateMutability": "view",
      "type": "function"
    },
    {
      "inputs": [],
      "name": "renounceOwnership",
      "outputs": [],
      "stateMutability": "nonpayable",
      "type": "function"
    },
    {
      "inputs": [
        {
          "internalType": "uint256",
          "name": "",
          "type": "uint256"
        }
      ],
      "name": "stakeInfos",
      "outputs": [
        {
          "internalType": "address",
          "name": "staker",
          "type": "address"
        },
        {
          "internalType": "address",
          "name": "operator",
          "type": "address"
        },
        {
          "internalType": "uint32",
          "name": "stakedTime",
          "type": "uint32"
        },
        {
          "internalType": "uint256",
          "name": "stakedAmt",
          "type": "uint256"
        }
      ],
      "stateMutability": "view",
      "type": "function"
    },
    {
      "inputs": [
        {
          "internalType": "address",
          "name": "addr",
          "type": "address"
        }
      ],
      "name": "stakeOperator",
      "outputs": [],
      "stateMutability": "payable",
      "type": "function"
    },
    {
      "inputs": [
        {
          "internalType": "address",
          "name": "newOwner",
          "type": "address"
        }
      ],
      "name": "transferOwnership",
      "outputs": [],
      "stateMutability": "nonpayable",
      "type": "function"
    },
    {
      "inputs": [
        {
          "internalType": "uint256",
          "name": "stakeId",
          "type": "uint256"
        },
        {
          "internalType": "uint256",
          "name": "amt",
          "type": "uint256"
        }
      ],
      "name": "unstakeOperator",
      "outputs": [],
      "stateMutability": "nonpayable",
      "type": "function"
    }
  ],
  "bytecode": "0x608060405234801561001057600080fd5b5061001a3361001f565b61006f565b600080546001600160a01b038381166001600160a01b0319831681178455604051919092169283917f8be0079c531659141344cd1fd0a4f28419497f9722a3daafe3b4186f6b6457e09190a35050565b611ada8061007e6000396000f3fe60806040526004361061009c5760003560e01c8063715018a611610064578063715018a6146101835780638da5cb5b14610198578063a5a0e919146101c0578063dca73fd7146101d3578063e28d4906146101f3578063f2fde38b1461026157600080fd5b80632504a216146100a15780633d5ec47e146100c3578063511ee4371461011e5780636199eef6146101405780636d70f7ae14610153575b600080fd5b3480156100ad57600080fd5b506100c16100bc3660046116f7565b610281565b005b3480156100cf57600080fd5b506100e36100de366004611719565b61068e565b604080516001600160a01b03958616815294909316602085015263ffffffff9091169183019190915260608201526080015b60405180910390f35b34801561012a57600080fd5b506101336106dd565b6040516101159190611732565b6100c161014e36600461179b565b6107b6565b34801561015f57600080fd5b5061017361016e36600461179b565b610a11565b6040519015158152602001610115565b34801561018f57600080fd5b506100c1610a90565b3480156101a457600080fd5b506000546040516001600160a01b039091168152602001610115565b6100c16101ce3660046117bd565b610aa4565b3480156101df57600080fd5b506100c16101ee36600461186f565b610b58565b3480156101ff57600080fd5b5061021361020e366004611719565b610c20565b604080516001600160a01b03909a168a5260208a0198909852968801959095526060870193909352608086019190915260a085015260c084015260e083015261010082015261012001610115565b34801561026d57600080fd5b506100c161027c36600461179b565b610c85565b60045482106102cc5760405162461bcd60e51b81526020600482015260126024820152716e6f2d737563682d7374616b652d696e666f60701b60448201526064015b60405180910390fd5b6000600483815481106102e1576102e1611988565b6000918252602090912060039091020180549091506001600160a01b0316331461033e5760405162461bcd60e51b815260206004820152600e60248201526d6e6f742d796f75722d7374616b6560901b60448201526064016102c3565b81816002015410156103865760405162461bcd60e51b81526020600482015260116024820152700eed2e8d0c8e4c2ee5ae8dede5adaeac6d607b1b60448201526064016102c3565b600181015442906103a8906283d60090600160a01b900463ffffffff166119b4565b106103e25760405162461bcd60e51b815260206004820152600a6024820152696e6f742d6d617475726560b01b60448201526064016102c3565b6001808201546001600160a01b031660009081526002602052604081205482549092908390811061041557610415611988565b6000918252602090912060099091020180549091506001600160a01b03166104725760405162461bcd60e51b815260206004820152601060248201526f373796b9bab1b416b7b832b930ba37b960811b60448201526064016102c3565b8383600201600082825461048691906119cd565b909155505060028301546000036104de57600485815481106104aa576104aa611988565b60009182526020822060039091020180546001600160a01b03191681556001810180546001600160c01b0319169055600201555b838160050160008282546104f291906119cd565b90915550508054336001600160a01b039091160361057e578381600601600082825461051e91906119cd565b909155505060078101541561057e5767016345785d8a000081600601541161057e5760405162461bcd60e51b8152602060048201526013602482015272746f6f2d6c6573732d73656c662d7374616b6560681b60448201526064016102c3565b8060050154600003610636576001828154811061059d5761059d611988565b60009182526020808320600990920290910180546001600160a01b031916815560018082018490556002808301859055600380840186905560048401869055600584018690556006840186905560078401869055600890930185905533855290925260408320839055805491820181559091527fc2575a0e9e593c00f959f8c92f12db2869c3395a3b0502d05e2516446f71f85b018290555b6106403385610cfe565b8054604080518781526020810187905233926001600160a01b0316917f4e4da858820d03358af7e05090375c4a8cfaddda3c24e48bd64e376f13d2c6bd910160405180910390a35050505050565b6004818154811061069e57600080fd5b60009182526020909120600390910201805460018201546002909201546001600160a01b03918216935090821691600160a01b900463ffffffff169084565b606060008060008060006040519450602085528460206106fd91906119b4565b935061070a8460206119b4565b925082915060005b6001548110156107ab576001818154811061072f5761072f611988565b906000526020600020906009020160070154600003156107995760006001828154811061075e5761075e611988565b6000918252602091829020600990910201546001600160a01b0316808652915061078890856119b4565b935082610794816119e0565b935050505b806107a3816119e0565b915050610712565b508084528482038086f35b600034116107f85760405162461bcd60e51b815260206004820152600f60248201526e6465706f7369742d6e6f7468696e6760881b60448201526064016102c3565b604080516080810182523381526001600160a01b03838116602080840182815263ffffffff428116868801908152346060880190815260048054600181810183556000928352995160039091027f8a35acfbc15ff81a39ae7d344fd709f28e8600b4aa8c65c6b64bfe7fe36bd19b81018054928b166001600160a01b03199093169290921790915594517f8a35acfbc15ff81a39ae7d344fd709f28e8600b4aa8c65c6b64bfe7fe36bd19c860180549451909516600160a01b026001600160c01b031990941698169790971791909117909155517f8a35acfbc15ff81a39ae7d344fd709f28e8600b4aa8c65c6b64bfe7fe36bd19d9091015590825260029052918220548154909291908390811061091257610912611988565b6000918252602090912060099091020180549091506001600160a01b038481169116146109745760405162461bcd60e51b815260206004820152601060248201526f373796b9bab1b416b7b832b930ba37b960811b60448201526064016102c3565b3481600501600082825461098891906119b4565b9091555050336001600160a01b038416036109b757348160060160008282546109b191906119b4565b90915550505b805460045433916001600160a01b0316907febc590f21987ecf5c1f8466f90a1a5d112eec48f1c2e652a65c42034cc2c107a906109f6906001906119cd565b604080519182523460208301520160405180910390a3505050565b6001546000908103610a2557506000919050565b6001600160a01b0382166000908152600260205260408120546001805491929183908110610a5557610a55611988565b6000918252602090912060099091020180549091506001600160a01b038581169116148015610a88575060008160070154115b949350505050565b610a98610e1c565b610aa26000610e76565b565b610ab43385858585346000610ec6565b6040805160ff86168152602081018590529081018390526060810182905234608082015233907ff60326b9d09410d6ce5b777e4d80932914842920440df63a64bd2413b2f5ff1c9060a00160405180910390a2600454339081907febc590f21987ecf5c1f8466f90a1a5d112eec48f1c2e652a65c42034cc2c107a90610b3c906001906119cd565b604080519182523460208301520160405180910390a350505050565b610b60610e1c565b60015415610ba65760405162461bcd60e51b8152602060048201526013602482015272185b1c9958591e4b5a5b9a5d1a585b1a5e9959606a1b60448201526064016102c3565b60005b8151811015610c1c576000828281518110610bc657610bc6611988565b60200260200101519050610be281600001518260c00151611495565b610c09816000015182602001518360400151846060015185608001518660c0015142610ec6565b5080610c14816119e0565b915050610ba9565b5050565b60018181548110610c3057600080fd5b60009182526020909120600990910201805460018201546002830154600384015460048501546005860154600687015460078801546008909801546001600160a01b0390971698509496939592949193909289565b610c8d610e1c565b6001600160a01b038116610cf25760405162461bcd60e51b815260206004820152602660248201527f4f776e61626c653a206e6577206f776e657220697320746865207a65726f206160448201526564647265737360d01b60648201526084016102c3565b610cfb81610e76565b50565b80471015610d4e5760405162461bcd60e51b815260206004820152601d60248201527f416464726573733a20696e73756666696369656e742062616c616e636500000060448201526064016102c3565b6000826001600160a01b03168260405160006040518083038185875af1925050503d8060008114610d9b576040519150601f19603f3d011682016040523d82523d6000602084013e610da0565b606091505b5050905080610e175760405162461bcd60e51b815260206004820152603a60248201527f416464726573733a20756e61626c6520746f2073656e642076616c75652c207260448201527f6563697069656e74206d6179206861766520726576657274656400000000000060648201526084016102c3565b505050565b6000546001600160a01b03163314610aa25760405162461bcd60e51b815260206004820181905260248201527f4f776e61626c653a2063616c6c6572206973206e6f7420746865206f776e657260448201526064016102c3565b600080546001600160a01b038381166001600160a01b0319831681178455604051919092169283917f8be0079c531659141344cd1fd0a4f28419497f9722a3daafe3b4186f6b6457e09190a35050565b8560ff1660021480610edb57508560ff166003145b610f1f5760405162461bcd60e51b81526020600482015260156024820152740d2dcecc2d8d2c85ae0eac4d6caf25ae0e4caccd2f605b1b60448201526064016102c3565b67016345785d8a0000821015610f6a5760405162461bcd60e51b815260206004820152601060248201526f6465706f7369742d746f6f2d6c65737360801b60448201526064016102c3565b6001600160a01b0387166000908152600260205260409020548015610fc45760405162461bcd60e51b815260206004820152601060248201526f1bdc195c985d1bdc8b595e1a5cdd195960821b60448201526064016102c3565b6001541561104457876001600160a01b03166001600081548110610fea57610fea611988565b60009182526020909120600990910201546001600160a01b0316036110445760405162461bcd60e51b815260206004820152601060248201526f1bdc195c985d1bdc8b595e1a5cdd195960821b60448201526064016102c3565b6003541561119b576003805460009190611060906001906119cd565b8154811061107057611070611988565b90600052602060002001549050600380548061108e5761108e6119f9565b600190038181906000526020600020016000905590556040518061012001604052808a6001600160a01b031681526020018960ff16815260200188815260200187815260200186815260200185815260200185815260200184815260200160008152506001828154811061110457611104611988565b6000918252602080832084516009939093020180546001600160a01b0319166001600160a01b03938416178155848201516001820155604080860151600280840191909155606087015160038401556080870151600484015560a0870151600584015560c0870151600684015560e0870151600784015561010090960151600890920191909155918d168352929092522055611393565b60408051610120810182526001600160a01b038a8116825260ff8a1660208301908152928201898152606083018981526080840189815260a0850189815260c086018a815260e087018a8152600061010089018181526001805480820182559281905299517fb10e2d527612073b26eecdfd717e6a320cf44b4afac2b0732d9fcbe2b7fa0cf6600990930292830180546001600160a01b03191691909a161790985598517fb10e2d527612073b26eecdfd717e6a320cf44b4afac2b0732d9fcbe2b7fa0cf78a015594517fb10e2d527612073b26eecdfd717e6a320cf44b4afac2b0732d9fcbe2b7fa0cf889015592517fb10e2d527612073b26eecdfd717e6a320cf44b4afac2b0732d9fcbe2b7fa0cf988015590517fb10e2d527612073b26eecdfd717e6a320cf44b4afac2b0732d9fcbe2b7fa0cfa870155517fb10e2d527612073b26eecdfd717e6a320cf44b4afac2b0732d9fcbe2b7fa0cfb860155517fb10e2d527612073b26eecdfd717e6a320cf44b4afac2b0732d9fcbe2b7fa0cfc850155517fb10e2d527612073b26eecdfd717e6a320cf44b4afac2b0732d9fcbe2b7fa0cfd840155517fb10e2d527612073b26eecdfd717e6a320cf44b4afac2b0732d9fcbe2b7fa0cfe90920191909155805461137991906119cd565b6001600160a01b0389166000908152600260205260409020555b5050604080516080810182526001600160a01b039788168152336020820190815263ffffffff4281169383019384526060830194855260048054600181018255600091909152925160039093027f8a35acfbc15ff81a39ae7d344fd709f28e8600b4aa8c65c6b64bfe7fe36bd19b81018054948c166001600160a01b03199095169490941790935590517f8a35acfbc15ff81a39ae7d344fd709f28e8600b4aa8c65c6b64bfe7fe36bd19c830180549451909216600160a01b026001600160c01b031990941699169890981791909117909655517f8a35acfbc15ff81a39ae7d344fd709f28e8600b4aa8c65c6b64bfe7fe36bd19d9095019490945550505050565b604080516001600160a01b0384166024820152306044820181905260648083018590528351808403909101815260849092019092526020810180516001600160e01b03166323b872dd60e01b179052610c1c916127119185919085906114fc908590611502565b50505050565b6000611557826040518060400160405280602081526020017f5361666545524332303a206c6f772d6c6576656c2063616c6c206661696c6564815250856001600160a01b03166115d49092919063ffffffff16565b805190915015610e1757808060200190518101906115759190611a0f565b610e175760405162461bcd60e51b815260206004820152602a60248201527f5361666545524332303a204552433230206f7065726174696f6e20646964206e6044820152691bdd081cdd58d8d9595960b21b60648201526084016102c3565b6060610a88848460008585600080866001600160a01b031685876040516115fb9190611a55565b60006040518083038185875af1925050503d8060008114611638576040519150601f19603f3d011682016040523d82523d6000602084013e61163d565b606091505b509150915061164e87838387611659565b979650505050505050565b606083156116c85782516000036116c1576001600160a01b0385163b6116c15760405162461bcd60e51b815260206004820152601d60248201527f416464726573733a2063616c6c20746f206e6f6e2d636f6e747261637400000060448201526064016102c3565b5081610a88565b610a8883838151156116dd5781518083602001fd5b8060405162461bcd60e51b81526004016102c39190611a71565b6000806040838503121561170a57600080fd5b50508035926020909101359150565b60006020828403121561172b57600080fd5b5035919050565b6020808252825182820181905260009190848201906040850190845b818110156117735783516001600160a01b03168352928401929184019160010161174e565b50909695505050505050565b80356001600160a01b038116811461179657600080fd5b919050565b6000602082840312156117ad57600080fd5b6117b68261177f565b9392505050565b600080600080608085870312156117d357600080fd5b843560ff811681146117e457600080fd5b966020860135965060408601359560600135945092505050565b634e487b7160e01b600052604160045260246000fd5b604051610120810167ffffffffffffffff81118282101715611838576118386117fe565b60405290565b604051601f8201601f1916810167ffffffffffffffff81118282101715611867576118676117fe565b604052919050565b6000602080838503121561188257600080fd5b823567ffffffffffffffff8082111561189a57600080fd5b818501915085601f8301126118ae57600080fd5b8135818111156118c0576118c06117fe565b6118ce848260051b0161183e565b81815284810192506101209182028401850191888311156118ee57600080fd5b938501935b8285101561197c5780858a03121561190b5760008081fd5b611913611814565b61191c8661177f565b8152858701358782015260408087013590820152606080870135908201526080808701359082015260a0808701359082015260c0808701359082015260e080870135908201526101008087013590820152845293840193928501926118f3565b50979650505050505050565b634e487b7160e01b600052603260045260246000fd5b634e487b7160e01b600052601160045260246000fd5b808201808211156119c7576119c761199e565b92915050565b818103818111156119c7576119c761199e565b6000600182016119f2576119f261199e565b5060010190565b634e487b7160e01b600052603160045260246000fd5b600060208284031215611a2157600080fd5b815180151581146117b657600080fd5b60005b83811015611a4c578181015183820152602001611a34565b50506000910152565b60008251611a67818460208701611a31565b9190910192915050565b6020815260008251806020840152611a90816040850160208701611a31565b601f01601f1916919091016040019291505056fea26469706673582212201f6ec4bfd2e6f1c0bf525728117c43201a7313d75eabed396270fa705b71297764736f6c63430008100033",
  "linkReferences": {},
  "deployedLinkReferences": {}
}