{
  "_format": "hh-sol-artifact-1",
  "contractName": "CCSbchNodesGov",
  "sourceName": "contracts/CCSbchNodesGov.sol",
  "abi": [
    {
      "inputs": [
        {
          "internalType": "address",
          "name": "monitorsGovAddr",
          "type": "address"
        },
        {
          "internalType": "address",
          "name": "operatorsGovAddr",
          "type": "address"
        },
        {
          "internalType": "address[]",
          "name": "_proposers",
          "type": "address[]"
        }
      ],
      "stateMutability": "nonpayable",
      "type": "constructor"
    },
    {
      "anonymous": false,
      "inputs": [
        {
          "indexed": true,
          "internalType": "uint256",
          "name": "id",
          "type": "uint256"
        }
      ],
      "name": "ExecProposal",
      "type": "event"
    },
    {
      "anonymous": false,
      "inputs": [
        {
          "indexed": true,
          "internalType": "uint256",
          "name": "id",
          "type": "uint256"
        },
        {
          "indexed": true,
          "internalType": "address",
          "name": "proposer",
          "type": "address"
        },
        {
          "indexed": false,
          "internalType": "bytes32",
          "name": "pubkeyHash",
          "type": "bytes32"
        },
        {
          "indexed": false,
          "internalType": "bytes32",
          "name": "rpcUrl",
          "type": "bytes32"
        },
        {
          "indexed": false,
          "internalType": "bytes32",
          "name": "intro",
          "type": "bytes32"
        }
      ],
      "name": "ProposeNewNode",
      "type": "event"
    },
    {
      "anonymous": false,
      "inputs": [
        {
          "indexed": true,
          "internalType": "uint256",
          "name": "id",
          "type": "uint256"
        },
        {
          "indexed": true,
          "internalType": "address",
          "name": "proposer",
          "type": "address"
        },
        {
          "indexed": false,
          "internalType": "address[]",
          "name": "newProposers",
          "type": "address[]"
        }
      ],
      "name": "ProposeNewProposers",
      "type": "event"
    },
    {
      "anonymous": false,
      "inputs": [
        {
          "indexed": true,
          "internalType": "uint256",
          "name": "id",
          "type": "uint256"
        },
        {
          "indexed": true,
          "internalType": "address",
          "name": "proposer",
          "type": "address"
        },
        {
          "indexed": false,
          "internalType": "uint256",
          "name": "nodeId",
          "type": "uint256"
        }
      ],
      "name": "ProposeObsoleteNode",
      "type": "event"
    },
    {
      "anonymous": false,
      "inputs": [
        {
          "indexed": true,
          "internalType": "uint256",
          "name": "nodeId",
          "type": "uint256"
        },
        {
          "indexed": true,
          "internalType": "address",
          "name": "monitor",
          "type": "address"
        }
      ],
      "name": "RemoveNodeByMonitor",
      "type": "event"
    },
    {
      "anonymous": false,
      "inputs": [
        {
          "indexed": true,
          "internalType": "uint256",
          "name": "id",
          "type": "uint256"
        },
        {
          "indexed": true,
          "internalType": "address",
          "name": "voter",
          "type": "address"
        },
        {
          "indexed": false,
          "internalType": "bool",
          "name": "agreed",
          "type": "bool"
        }
      ],
      "name": "VoteProposal",
      "type": "event"
    },
    {
      "inputs": [],
      "name": "MONITORS_GOV_ADDR",
      "outputs": [
        {
          "internalType": "address",
          "name": "",
          "type": "address"
        }
      ],
      "stateMutability": "view",
      "type": "function"
    },
    {
      "inputs": [],
      "name": "OPERATORS_GOV_ADDR",
      "outputs": [
        {
          "internalType": "address",
          "name": "",
          "type": "address"
        }
      ],
      "stateMutability": "view",
      "type": "function"
    },
    {
      "inputs": [
        {
          "internalType": "uint256",
          "name": "id",
          "type": "uint256"
        }
      ],
      "name": "execProposal",
      "outputs": [],
      "stateMutability": "nonpayable",
      "type": "function"
    },
    {
      "inputs": [],
      "name": "getAllProposers",
      "outputs": [
        {
          "internalType": "address[]",
          "name": "_proposers",
          "type": "address[]"
        }
      ],
      "stateMutability": "view",
      "type": "function"
    },
    {
      "inputs": [],
      "name": "getNodeCount",
      "outputs": [
        {
          "internalType": "uint256",
          "name": "",
          "type": "uint256"
        }
      ],
      "stateMutability": "view",
      "type": "function"
    },
    {
      "inputs": [
        {
          "internalType": "uint256",
          "name": "id",
          "type": "uint256"
        }
      ],
      "name": "getProposal",
      "outputs": [
        {
          "internalType": "address",
          "name": "proposer",
          "type": "address"
        },
        {
          "internalType": "address[]",
          "name": "newProposers",
          "type": "address[]"
        },
        {
          "components": [
            {
              "internalType": "uint256",
              "name": "id",
              "type": "uint256"
            },
            {
              "internalType": "bytes32",
              "name": "pubkeyHash",
              "type": "bytes32"
            },
            {
              "internalType": "bytes32",
              "name": "rpcUrl",
              "type": "bytes32"
            },
            {
              "internalType": "bytes32",
              "name": "intro",
              "type": "bytes32"
            }
          ],
          "internalType": "struct CCSbchNodesGov.NodeInfo",
          "name": "newNode",
          "type": "tuple"
        },
        {
          "internalType": "uint256",
          "name": "obsoleteNodeId",
          "type": "uint256"
        },
        {
          "internalType": "uint256",
          "name": "votes",
          "type": "uint256"
        }
      ],
      "stateMutability": "view",
      "type": "function"
    },
    {
      "inputs": [],
      "name": "lastNodeId",
      "outputs": [
        {
          "internalType": "uint256",
          "name": "",
          "type": "uint256"
        }
      ],
      "stateMutability": "view",
      "type": "function"
    },
    {
      "inputs": [],
      "name": "minProposalId",
      "outputs": [
        {
          "internalType": "uint256",
          "name": "",
          "type": "uint256"
        }
      ],
      "stateMutability": "view",
      "type": "function"
    },
    {
      "inputs": [
        {
          "internalType": "uint256",
          "name": "",
          "type": "uint256"
        }
      ],
      "name": "nodes",
      "outputs": [
        {
          "internalType": "uint256",
          "name": "id",
          "type": "uint256"
        },
        {
          "internalType": "bytes32",
          "name": "pubkeyHash",
          "type": "bytes32"
        },
        {
          "internalType": "bytes32",
          "name": "rpcUrl",
          "type": "bytes32"
        },
        {
          "internalType": "bytes32",
          "name": "intro",
          "type": "bytes32"
        }
      ],
      "stateMutability": "view",
      "type": "function"
    },
    {
      "inputs": [
        {
          "internalType": "uint256",
          "name": "",
          "type": "uint256"
        }
      ],
      "name": "proposals",
      "outputs": [
        {
          "internalType": "address",
          "name": "proposer",
          "type": "address"
        },
        {
          "components": [
            {
              "internalType": "uint256",
              "name": "id",
              "type": "uint256"
            },
            {
              "internalType": "bytes32",
              "name": "pubkeyHash",
              "type": "bytes32"
            },
            {
              "internalType": "bytes32",
              "name": "rpcUrl",
              "type": "bytes32"
            },
            {
              "internalType": "bytes32",
              "name": "intro",
              "type": "bytes32"
            }
          ],
          "internalType": "struct CCSbchNodesGov.NodeInfo",
          "name": "newNode",
          "type": "tuple"
        },
        {
          "internalType": "uint256",
          "name": "obsoleteNodeId",
          "type": "uint256"
        },
        {
          "internalType": "uint256",
          "name": "votes",
          "type": "uint256"
        }
      ],
      "stateMutability": "view",
      "type": "function"
    },
    {
      "inputs": [
        {
          "internalType": "bytes32",
          "name": "pubkeyHash",
          "type": "bytes32"
        },
        {
          "internalType": "bytes32",
          "name": "rpcUrl",
          "type": "bytes32"
        },
        {
          "internalType": "bytes32",
          "name": "intro",
          "type": "bytes32"
        }
      ],
      "name": "proposeNewNode",
      "outputs": [],
      "stateMutability": "nonpayable",
      "type": "function"
    },
    {
      "inputs": [
        {
          "internalType": "address[]",
          "name": "newProposers",
          "type": "address[]"
        }
      ],
      "name": "proposeNewProposers",
      "outputs": [],
      "stateMutability": "nonpayable",
      "type": "function"
    },
    {
      "inputs": [
        {
          "internalType": "uint256",
          "name": "nodeId",
          "type": "uint256"
        }
      ],
      "name": "proposeObsoleteNode",
      "outputs": [],
      "stateMutability": "nonpayable",
      "type": "function"
    },
    {
      "inputs": [
        {
          "internalType": "uint256",
          "name": "",
          "type": "uint256"
        }
      ],
      "name": "proposers",
      "outputs": [
        {
          "internalType": "address",
          "name": "",
          "type": "address"
        }
      ],
      "stateMutability": "view",
      "type": "function"
    },
    {
      "inputs": [
        {
          "internalType": "uint256",
          "name": "id",
          "type": "uint256"
        }
      ],
      "name": "removeNode",
      "outputs": [],
      "stateMutability": "nonpayable",
      "type": "function"
    },
    {
      "inputs": [],
      "name": "syncProposers",
      "outputs": [],
      "stateMutability": "nonpayable",
      "type": "function"
    },
    {
      "inputs": [],
      "name": "syncProposersHash",
      "outputs": [
        {
          "internalType": "bytes32",
          "name": "",
          "type": "bytes32"
        }
      ],
      "stateMutability": "view",
      "type": "function"
    },
    {
      "inputs": [
        {
          "internalType": "uint256",
          "name": "id",
          "type": "uint256"
        },
        {
          "internalType": "bool",
          "name": "agreed",
          "type": "bool"
        }
      ],
      "name": "voteProposal",
      "outputs": [],
      "stateMutability": "nonpayable",
      "type": "function"
    }
  ],
  "bytecode": "0x60c06040523480156200001157600080fd5b5060405162001f7138038062001f7183398101604081905262000034916200028c565b6001600160a01b03808416608052821660a05280516200008a5760405162461bcd60e51b815260206004820152600c60248201526b6e6f2d70726f706f7365727360a01b60448201526064015b60405180910390fd5b61010081511115620000d45760405162461bcd60e51b8152602060048201526012602482015271746f6f2d6d616e792d70726f706f7365727360701b604482015260640162000081565b620000df81620000e8565b505050620003c4565b60005b81518110156200013857620001238282815181106200010e576200010e62000386565b6020026020010151826200013c60201b60201c565b806200012f816200039c565b915050620000eb565b5050565b6200014782620001f5565b15620001965760405162461bcd60e51b815260206004820152601360248201527f6475706c6963617465642d70726f706f73657200000000000000000000000000604482015260640162000081565b6001600160a01b0390911660008181526002602052604081209290925560018054808201825592527fb10e2d527612073b26eecdfd717e6a320cf44b4afac2b0732d9fcbe2b7fa0cf690910180546001600160a01b0319169091179055565b6001600160a01b03811660009081526002602052604081205460015415801590620002525750826001600160a01b0316600182815481106200023b576200023b62000386565b6000918252602090912001546001600160a01b0316145b9392505050565b80516001600160a01b03811681146200027157600080fd5b919050565b634e487b7160e01b600052604160045260246000fd5b600080600060608486031215620002a257600080fd5b620002ad8462000259565b92506020620002be81860162000259565b60408601519093506001600160401b0380821115620002dc57600080fd5b818701915087601f830112620002f157600080fd5b81518181111562000306576200030662000276565b8060051b604051601f19603f830116810181811085821117156200032e576200032e62000276565b60405291825284820192508381018501918a8311156200034d57600080fd5b938501935b828510156200037657620003668562000259565b8452938501939285019262000352565b8096505050505050509250925092565b634e487b7160e01b600052603260045260246000fd5b600060018201620003bd57634e487b7160e01b600052601160045260246000fd5b5060010190565b60805160a051611b79620003f8600039600081816102910152610385015260008181610220015261112d0152611b796000f3fe608060405234801561001057600080fd5b50600436106101165760003560e01c80636b235c84116100a2578063bcfb9b6111610071578063bcfb9b6114610255578063c7f758a814610268578063d51d25a21461028c578063f25699eb146102b3578063ffd740df146102c657600080fd5b80636b235c84146101f3578063933c130614610208578063ace5e98b1461021b578063b79d78731461024257600080fd5b806339bf397e116100e957806339bf397e1461019a578063525fd441146101a257806359725d5d146101ac578063623e3d1a146101b55780636b00e76b146101e057600080fd5b8063013cf08b1461011b578063042da775146101475780631c53c2801461015e5780631d9187f414610191575b600080fd5b61012e6101293660046116ba565b6102d9565b60405161013e94939291906116d3565b60405180910390f35b61015060035481565b60405190815260200161013e565b61017161016c3660046116ba565b610347565b60408051948552602085019390935291830152606082015260800161013e565b61015060065481565b600454610150565b6101aa610381565b005b61015060005481565b6101c86101c33660046116ba565b61046a565b6040516001600160a01b03909116815260200161013e565b6101aa6101ee366004611723565b610494565b6101fb6106c7565b60405161013e91906117dc565b6101aa6102163660046116ba565b610729565b6101c87f000000000000000000000000000000000000000000000000000000000000000081565b6101aa6102503660046117ef565b610ad9565b6101aa610263366004611829565b610c98565b61027b6102763660046116ba565b610dfa565b60405161013e959493929190611859565b6101c87f000000000000000000000000000000000000000000000000000000000000000081565b6101aa6102c13660046116ba565b610f02565b6101aa6102d43660046116ba565b611118565b600781815481106102e957600080fd5b6000918252602091829020600890910201805460408051608081018252600284015481526003840154948101949094526004830154908401526005820154606084015260068201546007909201546001600160a01b03909116935084565b6004818154811061035757600080fd5b60009182526020909120600490910201805460018201546002830154600390930154919350919084565b60007f000000000000000000000000000000000000000000000000000000000000000090506000816001600160a01b031663511ee4376040518163ffffffff1660e01b8152600401600060405180830381865afa1580156103e6573d6000803e3d6000fd5b505050506040513d6000823e601f3d908101601f1916820160405261040e91908101906118f8565b905060008160405160200161042391906117dc565b604051602081830303815290604052805190602001209050806000540361044957505050565b6000819055610456611213565b61045f826112aa565b505060075460065550565b6001818154811061047a57600080fd5b6000918252602090912001546001600160a01b0316905081565b61049d336112ef565b6104c25760405162461bcd60e51b81526004016104b9906119bd565b60405180910390fd5b806105025760405162461bcd60e51b815260206004820152601060248201526f6e6f2d6e65772d70726f706f7365727360801b60448201526064016104b9565b6101008111156105495760405162461bcd60e51b8152602060048201526012602482015271746f6f2d6d616e792d70726f706f7365727360701b60448201526064016104b9565b60076040518060a00160405280336001600160a01b03168152602001848480806020026020016040519081016040528093929190818152602001838360200280828437600092018290525093855250506040805160808101825283815260208082018590528183018590526060808301869052818701929092529185018490529093018290525083546001808201865594825290829020835160089092020180546001600160a01b0319166001600160a01b039092169190911781558282015180519394919361062193928501929190910190611626565b5060408281015180516002840155602081015160038401559081015160048301556060908101516005830155820151600682015560809091015160079182015554600090610671906001906119f9565b905061067e81600161134f565b336001600160a01b0316817f59271bcbab62fa452be76722be8f6daace4f1f607d055dee0998414bc915c22d85856040516106ba929190611a12565b60405180910390a3505050565b6060600180548060200260200160405190810160405280929190818152602001828054801561071f57602002820191906000526020600020905b81546001600160a01b03168152600190910190602001808311610701575b5050505050905090565b60065481101561076f5760405162461bcd60e51b81526020600482015260116024820152701bdd5d19185d19590b5c1c9bdc1bdcd85b607a1b60448201526064016104b9565b60075481106107b35760405162461bcd60e51b815260206004820152601060248201526f1b9bcb5cdd58da0b5c1c9bdc1bdcd85b60821b60448201526064016104b9565b6000600782815481106107c8576107c8611a60565b6000918252602090912060089091020180549091506001600160a01b03166108265760405162461bcd60e51b8152602060048201526011602482015270195e1958dd5d19590b5c1c9bdc1bdcd85b607a1b60448201526064016104b9565b60015460009060039061083a906002611a76565b6108449190611a95565b9050600061085583600701546113d5565b90508181101561089a5760405162461bcd60e51b815260206004820152601060248201526f6e6f742d656e6f7567682d766f74657360801b60448201526064016104b9565b60018301541561091c576108ac611213565b6109118360010180548060200260200160405190810160405280929190818152602001828054801561090757602002820191906000526020600020905b81546001600160a01b031681526001909101906020018083116108e9575b50505050506112aa565b600754600655610a3f565b600383015415610a1e57600083600201905060036000815461093d90611ab7565b918290555081556004805460018082018355600083905283547f8a35acfbc15ff81a39ae7d344fd709f28e8600b4aa8c65c6b64bfe7fe36bd19b92840292830155808401547f8a35acfbc15ff81a39ae7d344fd709f28e8600b4aa8c65c6b64bfe7fe36bd19c83015560028401547f8a35acfbc15ff81a39ae7d344fd709f28e8600b4aa8c65c6b64bfe7fe36bd19d83015560038401547f8a35acfbc15ff81a39ae7d344fd709f28e8600b4aa8c65c6b64bfe7fe36bd19e909201919091559054610a0891906119f9565b9054600090815260056020526040902055610a3f565b6000836006015411610a3257610a32611ad0565b610a3f83600601546113fe565b60078481548110610a5257610a52611a60565b60009182526020822060089091020180546001600160a01b031916815590610a7d600183018261168b565b5060006002820181905560038201819055600482018190556005820181905560068201819055600790910181905560405185917f760902578cf40fc10ddf6b953d8b37f6a86ad7a1123c3094f3d6ab75da08132491a250505050565b610ae2336112ef565b610afe5760405162461bcd60e51b81526004016104b9906119bd565b600060405180608001604052806000815260200185815260200184815260200183815250905060076040518060a00160405280336001600160a01b03168152602001600067ffffffffffffffff811115610b5a57610b5a6118c2565b604051908082528060200260200182016040528015610b83578160200160208202803683370190505b5081526020808201859052600060408301819052606090920182905283546001808201865594835291819020835160089093020180546001600160a01b0319166001600160a01b0390931692909217825582810151805193949293610bef938501929190910190611626565b5060408281015180516002840155602081015160038401559081015160048301556060908101516005830155820151600682015560809091015160079182015554600090610c3f906001906119f9565b9050610c4c81600161134f565b6040805186815260208101869052908101849052339082907fe8ba420585a89499b6167b37f7beac327ff6f0b21f44f0024e54a17459e51fc59060600160405180910390a35050505050565b610ca1336112ef565b610cbd5760405162461bcd60e51b81526004016104b9906119bd565b600654821015610d035760405162461bcd60e51b81526020600482015260116024820152701bdd5d19185d19590b5c1c9bdc1bdcd85b607a1b60448201526064016104b9565b6007548210610d475760405162461bcd60e51b815260206004820152601060248201526f1b9bcb5cdd58da0b5c1c9bdc1bdcd85b60821b60448201526064016104b9565b600060078381548110610d5c57610d5c611a60565b6000918252602090912060089091020180549091506001600160a01b0316610dba5760405162461bcd60e51b8152602060048201526011602482015270195e1958dd5d19590b5c1c9bdc1bdcd85b607a1b60448201526064016104b9565b610dc4838361134f565b6040518215158152339084907f1c076051e65699422562af80dc299053856695c24ba29b4d03628be79bd19cf4906020016106ba565b60408051608081018252600080825260208201819052918101829052606081810183905290600080600060078781548110610e3757610e37611a60565b6000918252602091829020600890910201805460018201805460408051828702810187019091528181526001600160a01b039093169a509294509092909190830182828015610eaf57602002820191906000526020600020905b81546001600160a01b03168152600190910190602001808311610e91575b50506040805160808101825260028701548152600387015460208201526004870154918101919091526005860154606082015260068601546007909601549a9c949b509994985093965091945050505050565b610f0b336112ef565b610f275760405162461bcd60e51b81526004016104b9906119bd565b60008181526005602052604090205460045481108015610f6a57508160048281548110610f5657610f56611a60565b906000526020600020906004020160000154145b610fa55760405162461bcd60e51b815260206004820152600c60248201526b6e6f2d737563682d6e6f646560a01b60448201526064016104b9565b6040805160a0810182523381528151600080825260208083018552808401928352845160808082018752838252818301849052818701849052606080830185905296860191909152948401879052938301819052600780546001810182559152825160089091027fa66cc928b5edb82af9bd49922954155ab7b0942694bea4ce44661d9a8736c688810180546001600160a01b039093166001600160a01b03199093169290921782559151805193949193611087937fa66cc928b5edb82af9bd49922954155ab7b0942694bea4ce44661d9a8736c68901929190910190611626565b50604082810151805160028401556020810151600384015590810151600483015560609081015160058301558201516006820155608090910151600791820155546000906110d7906001906119f9565b90506110e481600161134f565b604051838152339082907f606c2b55cfa6a5b82e250d8b56b43354df1f52bc025cbb29de75d23888ec74a1906020016106ba565b60405163562aa20160e01b81523360048201527f00000000000000000000000000000000000000000000000000000000000000006001600160a01b03169063562aa20190602401602060405180830381865afa15801561117c573d6000803e3d6000fd5b505050506040513d601f19601f820116820180604052508101906111a09190611ae6565b6111da5760405162461bcd60e51b815260206004820152600b60248201526a3737ba16b6b7b734ba37b960a91b60448201526064016104b9565b6111e3816113fe565b604051339082907f4e7ed9da998a80676db81ee87fc8871ef5388ca865745b6f0ec1b4e7f48e6ce890600090a350565b6001545b80156112a75760026000600161122d81856119f9565b8154811061123d5761123d611a60565b60009182526020808320909101546001600160a01b03168352820192909252604001812055600180548061127357611273611b03565b600082815260209020810160001990810180546001600160a01b03191690550190558061129f81611b19565b915050611217565b50565b60005b81518110156112eb576112d98282815181106112cb576112cb611a60565b60200260200101518261157b565b806112e381611ab7565b9150506112ad565b5050565b6001600160a01b038116600090815260026020526040812054600154158015906113485750826001600160a01b03166001828154811061133157611331611a60565b6000918252602090912001546001600160a01b0316145b9392505050565b33600090815260026020526040902054600160ff82161b821561139f57806007858154811061138057611380611a60565b60009182526020909120600760089092020101805490911790556113cf565b8019600785815481106113b4576113b4611a60565b60009182526020909120600760089092020101805490911690555b50505050565b60005b81156113f9576113eb6001831682611b30565b9050600182901c91506113d8565b919050565b600081815260056020526040902054600454811080156114415750816004828154811061142d5761142d611a60565b906000526020600020906004020160000154145b61147c5760405162461bcd60e51b815260206004820152600c60248201526b6e6f2d737563682d6e6f646560a01b60448201526064016104b9565b60045460009061148e906001906119f9565b60045490915060011080156114a35750808214155b15611528576000600482815481106114bd576114bd611a60565b9060005260206000209060040201905080600484815481106114e1576114e1611a60565b600091825260208083208454600490930201918255600180850154908301556002808501549083015560039384015493909101929092559154825260059052604090208290555b600480548061153957611539611b03565b60008281526020808220600460001990940193840201828155600181018390556002810183905560030182905591909255938152600590935250506040812055565b611584826112ef565b156115c75760405162461bcd60e51b8152602060048201526013602482015272323ab83634b1b0ba32b216b83937b837b9b2b960691b60448201526064016104b9565b6001600160a01b0390911660008181526002602052604081209290925560018054808201825592527fb10e2d527612073b26eecdfd717e6a320cf44b4afac2b0732d9fcbe2b7fa0cf690910180546001600160a01b0319169091179055565b82805482825590600052602060002090810192821561167b579160200282015b8281111561167b57825182546001600160a01b0319166001600160a01b03909116178255602090920191600190910190611646565b506116879291506116a5565b5090565b50805460008255906000526020600020908101906112a791905b5b8082111561168757600081556001016116a6565b6000602082840312156116cc57600080fd5b5035919050565b6001600160a01b038516815260e081016117116020830186805182526020810151602083015260408101516040830152606081015160608301525050565b60a082019390935260c0015292915050565b6000806020838503121561173657600080fd5b823567ffffffffffffffff8082111561174e57600080fd5b818501915085601f83011261176257600080fd5b81358181111561177157600080fd5b8660208260051b850101111561178657600080fd5b60209290920196919550909350505050565b600081518084526020808501945080840160005b838110156117d15781516001600160a01b0316875295820195908201906001016117ac565b509495945050505050565b6020815260006113486020830184611798565b60008060006060848603121561180457600080fd5b505081359360208301359350604090920135919050565b80151581146112a757600080fd5b6000806040838503121561183c57600080fd5b82359150602083013561184e8161181b565b809150509250929050565b6001600160a01b03861681526101006020820181905260009061187e83820188611798565b9150506118af6040830186805182526020810151602083015260408101516040830152606081015160608301525050565b60c082019390935260e001529392505050565b634e487b7160e01b600052604160045260246000fd5b6001600160a01b03811681146112a757600080fd5b80516113f9816118d8565b6000602080838503121561190b57600080fd5b825167ffffffffffffffff8082111561192357600080fd5b818501915085601f83011261193757600080fd5b815181811115611949576119496118c2565b8060051b604051601f19603f8301168101818110858211171561196e5761196e6118c2565b60405291825284820192508381018501918883111561198c57600080fd5b938501935b828510156119b1576119a2856118ed565b84529385019392850192611991565b98975050505050505050565b6020808252600c908201526b3737ba16b83937b837b9b2b960a11b604082015260600190565b634e487b7160e01b600052601160045260246000fd5b81810381811115611a0c57611a0c6119e3565b92915050565b60208082528181018390526000908460408401835b86811015611a55578235611a3a816118d8565b6001600160a01b031682529183019190830190600101611a27565b509695505050505050565b634e487b7160e01b600052603260045260246000fd5b6000816000190483118215151615611a9057611a906119e3565b500290565b600082611ab257634e487b7160e01b600052601260045260246000fd5b500490565b600060018201611ac957611ac96119e3565b5060010190565b634e487b7160e01b600052600160045260246000fd5b600060208284031215611af857600080fd5b81516113488161181b565b634e487b7160e01b600052603160045260246000fd5b600081611b2857611b286119e3565b506000190190565b80820180821115611a0c57611a0c6119e356fea26469706673582212200a69584000538605d109eb0ded5c5648360e96c14fe1556a143c8eb19987a27164736f6c63430008100033",
  "linkReferences": {},
  "deployedLinkReferences": {}
}