{
  "_format": "hh-sol-artifact-1",
  "contractName": "CCSbchNodesGov",
  "sourceName": "contracts/CCSbchNodesGov.sol",
  "abi": [
    {
      "inputs": [
        {
          "internalType": "address",
          "name": "monitorsGovAddr",
          "type": "address"
        },
        {
          "internalType": "address",
          "name": "operatorsGovAddr",
          "type": "address"
        },
        {
          "internalType": "address[]",
          "name": "_proposers",
          "type": "address[]"
        }
      ],
      "stateMutability": "nonpayable",
      "type": "constructor"
    },
    {
      "anonymous": false,
      "inputs": [
        {
          "indexed": true,
          "internalType": "uint256",
          "name": "id",
          "type": "uint256"
        }
      ],
      "name": "ExecProposal",
      "type": "event"
    },
    {
      "anonymous": false,
      "inputs": [
        {
          "indexed": true,
          "internalType": "address",
          "name": "previousOwner",
          "type": "address"
        },
        {
          "indexed": true,
          "internalType": "address",
          "name": "newOwner",
          "type": "address"
        }
      ],
      "name": "OwnershipTransferred",
      "type": "event"
    },
    {
      "anonymous": false,
      "inputs": [
        {
          "indexed": true,
          "internalType": "uint256",
          "name": "id",
          "type": "uint256"
        },
        {
          "indexed": true,
          "internalType": "address",
          "name": "proposer",
          "type": "address"
        },
        {
          "indexed": false,
          "internalType": "bytes32",
          "name": "pubkeyHash",
          "type": "bytes32"
        },
        {
          "indexed": false,
          "internalType": "bytes32",
          "name": "rpcUrl",
          "type": "bytes32"
        },
        {
          "indexed": false,
          "internalType": "bytes32",
          "name": "intro",
          "type": "bytes32"
        }
      ],
      "name": "ProposeNewNode",
      "type": "event"
    },
    {
      "anonymous": false,
      "inputs": [
        {
          "indexed": true,
          "internalType": "uint256",
          "name": "id",
          "type": "uint256"
        },
        {
          "indexed": true,
          "internalType": "address",
          "name": "proposer",
          "type": "address"
        },
        {
          "indexed": false,
          "internalType": "address[]",
          "name": "newProposers",
          "type": "address[]"
        }
      ],
      "name": "ProposeNewProposers",
      "type": "event"
    },
    {
      "anonymous": false,
      "inputs": [
        {
          "indexed": true,
          "internalType": "uint256",
          "name": "id",
          "type": "uint256"
        },
        {
          "indexed": true,
          "internalType": "address",
          "name": "proposer",
          "type": "address"
        },
        {
          "indexed": false,
          "internalType": "uint256",
          "name": "nodeId",
          "type": "uint256"
        }
      ],
      "name": "ProposeObsoleteNode",
      "type": "event"
    },
    {
      "anonymous": false,
      "inputs": [
        {
          "indexed": true,
          "internalType": "uint256",
          "name": "nodeId",
          "type": "uint256"
        },
        {
          "indexed": true,
          "internalType": "address",
          "name": "monitor",
          "type": "address"
        }
      ],
      "name": "RemoveNodeByMonitor",
      "type": "event"
    },
    {
      "anonymous": false,
      "inputs": [
        {
          "indexed": true,
          "internalType": "uint256",
          "name": "id",
          "type": "uint256"
        },
        {
          "indexed": true,
          "internalType": "address",
          "name": "voter",
          "type": "address"
        },
        {
          "indexed": false,
          "internalType": "bool",
          "name": "agreed",
          "type": "bool"
        }
      ],
      "name": "VoteProposal",
      "type": "event"
    },
    {
      "inputs": [],
      "name": "MONITORS_GOV_ADDR",
      "outputs": [
        {
          "internalType": "address",
          "name": "",
          "type": "address"
        }
      ],
      "stateMutability": "view",
      "type": "function"
    },
    {
      "inputs": [],
      "name": "OPERATORS_GOV_ADDR",
      "outputs": [
        {
          "internalType": "address",
          "name": "",
          "type": "address"
        }
      ],
      "stateMutability": "view",
      "type": "function"
    },
    {
      "inputs": [
        {
          "internalType": "uint256",
          "name": "id",
          "type": "uint256"
        }
      ],
      "name": "execProposal",
      "outputs": [],
      "stateMutability": "nonpayable",
      "type": "function"
    },
    {
      "inputs": [],
      "name": "getAllProposers",
      "outputs": [
        {
          "internalType": "address[]",
          "name": "_proposers",
          "type": "address[]"
        }
      ],
      "stateMutability": "view",
      "type": "function"
    },
    {
      "inputs": [],
      "name": "getNodeCount",
      "outputs": [
        {
          "internalType": "uint256",
          "name": "",
          "type": "uint256"
        }
      ],
      "stateMutability": "view",
      "type": "function"
    },
    {
      "inputs": [
        {
          "internalType": "uint256",
          "name": "id",
          "type": "uint256"
        }
      ],
      "name": "getProposal",
      "outputs": [
        {
          "internalType": "address",
          "name": "proposer",
          "type": "address"
        },
        {
          "internalType": "address[]",
          "name": "newProposers",
          "type": "address[]"
        },
        {
          "components": [
            {
              "internalType": "uint256",
              "name": "id",
              "type": "uint256"
            },
            {
              "internalType": "bytes32",
              "name": "pubkeyHash",
              "type": "bytes32"
            },
            {
              "internalType": "bytes32",
              "name": "rpcUrl",
              "type": "bytes32"
            },
            {
              "internalType": "bytes32",
              "name": "intro",
              "type": "bytes32"
            }
          ],
          "internalType": "struct NodeInfo",
          "name": "newNode",
          "type": "tuple"
        },
        {
          "internalType": "uint256",
          "name": "obsoleteNodeId",
          "type": "uint256"
        },
        {
          "internalType": "uint256",
          "name": "votes",
          "type": "uint256"
        }
      ],
      "stateMutability": "view",
      "type": "function"
    },
    {
      "inputs": [
        {
          "components": [
            {
              "internalType": "uint256",
              "name": "id",
              "type": "uint256"
            },
            {
              "internalType": "bytes32",
              "name": "pubkeyHash",
              "type": "bytes32"
            },
            {
              "internalType": "bytes32",
              "name": "rpcUrl",
              "type": "bytes32"
            },
            {
              "internalType": "bytes32",
              "name": "intro",
              "type": "bytes32"
            }
          ],
          "internalType": "struct NodeInfo[]",
          "name": "nodeList",
          "type": "tuple[]"
        }
      ],
      "name": "init",
      "outputs": [],
      "stateMutability": "nonpayable",
      "type": "function"
    },
    {
      "inputs": [],
      "name": "lastNodeId",
      "outputs": [
        {
          "internalType": "uint256",
          "name": "",
          "type": "uint256"
        }
      ],
      "stateMutability": "view",
      "type": "function"
    },
    {
      "inputs": [],
      "name": "minProposalId",
      "outputs": [
        {
          "internalType": "uint256",
          "name": "",
          "type": "uint256"
        }
      ],
      "stateMutability": "view",
      "type": "function"
    },
    {
      "inputs": [
        {
          "internalType": "uint256",
          "name": "",
          "type": "uint256"
        }
      ],
      "name": "nodes",
      "outputs": [
        {
          "internalType": "uint256",
          "name": "id",
          "type": "uint256"
        },
        {
          "internalType": "bytes32",
          "name": "pubkeyHash",
          "type": "bytes32"
        },
        {
          "internalType": "bytes32",
          "name": "rpcUrl",
          "type": "bytes32"
        },
        {
          "internalType": "bytes32",
          "name": "intro",
          "type": "bytes32"
        }
      ],
      "stateMutability": "view",
      "type": "function"
    },
    {
      "inputs": [],
      "name": "owner",
      "outputs": [
        {
          "internalType": "address",
          "name": "",
          "type": "address"
        }
      ],
      "stateMutability": "view",
      "type": "function"
    },
    {
      "inputs": [
        {
          "internalType": "uint256",
          "name": "",
          "type": "uint256"
        }
      ],
      "name": "proposals",
      "outputs": [
        {
          "internalType": "address",
          "name": "proposer",
          "type": "address"
        },
        {
          "internalType": "uint64",
          "name": "createdTime",
          "type": "uint64"
        },
        {
          "components": [
            {
              "internalType": "uint256",
              "name": "id",
              "type": "uint256"
            },
            {
              "internalType": "bytes32",
              "name": "pubkeyHash",
              "type": "bytes32"
            },
            {
              "internalType": "bytes32",
              "name": "rpcUrl",
              "type": "bytes32"
            },
            {
              "internalType": "bytes32",
              "name": "intro",
              "type": "bytes32"
            }
          ],
          "internalType": "struct NodeInfo",
          "name": "newNode",
          "type": "tuple"
        },
        {
          "internalType": "uint256",
          "name": "obsoleteNodeId",
          "type": "uint256"
        },
        {
          "internalType": "uint256",
          "name": "votes",
          "type": "uint256"
        }
      ],
      "stateMutability": "view",
      "type": "function"
    },
    {
      "inputs": [
        {
          "internalType": "bytes32",
          "name": "pubkeyHash",
          "type": "bytes32"
        },
        {
          "internalType": "bytes32",
          "name": "rpcUrl",
          "type": "bytes32"
        },
        {
          "internalType": "bytes32",
          "name": "intro",
          "type": "bytes32"
        }
      ],
      "name": "proposeNewNode",
      "outputs": [],
      "stateMutability": "nonpayable",
      "type": "function"
    },
    {
      "inputs": [
        {
          "internalType": "address[]",
          "name": "newProposers",
          "type": "address[]"
        }
      ],
      "name": "proposeNewProposers",
      "outputs": [],
      "stateMutability": "nonpayable",
      "type": "function"
    },
    {
      "inputs": [
        {
          "internalType": "uint256",
          "name": "nodeId",
          "type": "uint256"
        }
      ],
      "name": "proposeObsoleteNode",
      "outputs": [],
      "stateMutability": "nonpayable",
      "type": "function"
    },
    {
      "inputs": [
        {
          "internalType": "uint256",
          "name": "",
          "type": "uint256"
        }
      ],
      "name": "proposers",
      "outputs": [
        {
          "internalType": "address",
          "name": "",
          "type": "address"
        }
      ],
      "stateMutability": "view",
      "type": "function"
    },
    {
      "inputs": [
        {
          "internalType": "uint256",
          "name": "id",
          "type": "uint256"
        }
      ],
      "name": "removeNode",
      "outputs": [],
      "stateMutability": "nonpayable",
      "type": "function"
    },
    {
      "inputs": [],
      "name": "renounceOwnership",
      "outputs": [],
      "stateMutability": "nonpayable",
      "type": "function"
    },
    {
      "inputs": [],
      "name": "syncProposers",
      "outputs": [],
      "stateMutability": "nonpayable",
      "type": "function"
    },
    {
      "inputs": [],
      "name": "syncProposersHash",
      "outputs": [
        {
          "internalType": "bytes32",
          "name": "",
          "type": "bytes32"
        }
      ],
      "stateMutability": "view",
      "type": "function"
    },
    {
      "inputs": [
        {
          "internalType": "address",
          "name": "newOwner",
          "type": "address"
        }
      ],
      "name": "transferOwnership",
      "outputs": [],
      "stateMutability": "nonpayable",
      "type": "function"
    },
    {
      "inputs": [
        {
          "internalType": "uint256",
          "name": "id",
          "type": "uint256"
        },
        {
          "internalType": "bool",
          "name": "agreed",
          "type": "bool"
        }
      ],
      "name": "voteProposal",
      "outputs": [],
      "stateMutability": "nonpayable",
      "type": "function"
    }
  ],
  "bytecode": "0x60c06040523480156200001157600080fd5b50604051620024eb380380620024eb8339810160408190526200003491620002e8565b6200003f33620000f3565b6001600160a01b03808416608052821660a0528051620000955760405162461bcd60e51b815260206004820152600c60248201526b6e6f2d70726f706f7365727360a01b60448201526064015b60405180910390fd5b61010081511115620000df5760405162461bcd60e51b8152602060048201526012602482015271746f6f2d6d616e792d70726f706f7365727360701b60448201526064016200008c565b620000ea8162000143565b50505062000420565b600080546001600160a01b038381166001600160a01b0319831681178455604051919092169283917f8be0079c531659141344cd1fd0a4f28419497f9722a3daafe3b4186f6b6457e09190a35050565b60005b815181101562000193576200017e828281518110620001695762000169620003e2565b6020026020010151826200019760201b60201c565b806200018a81620003f8565b91505062000146565b5050565b620001a28262000251565b15620001f15760405162461bcd60e51b815260206004820152601360248201527f6475706c6963617465642d70726f706f7365720000000000000000000000000060448201526064016200008c565b6001600160a01b039091166000818152600360205260408120929092556002805460018101825592527f405787fa12a823e0f2b7631cc41b3ba8828b3321ca811111fa75cd3aa3bb5ace90910180546001600160a01b0319169091179055565b6001600160a01b03811660009081526003602052604081205460025415801590620002ae5750826001600160a01b031660028281548110620002975762000297620003e2565b6000918252602090912001546001600160a01b0316145b9392505050565b80516001600160a01b0381168114620002cd57600080fd5b919050565b634e487b7160e01b600052604160045260246000fd5b600080600060608486031215620002fe57600080fd5b6200030984620002b5565b925060206200031a818601620002b5565b60408601519093506001600160401b03808211156200033857600080fd5b818701915087601f8301126200034d57600080fd5b815181811115620003625762000362620002d2565b8060051b604051601f19603f830116810181811085821117156200038a576200038a620002d2565b60405291825284820192508381018501918a831115620003a957600080fd5b938501935b82851015620003d257620003c285620002b5565b84529385019392850192620003ae565b8096505050505050509250925092565b634e487b7160e01b600052603260045260246000fd5b6000600182016200041957634e487b7160e01b600052601160045260246000fd5b5060010190565b60805160a05161209762000454600039600081816102d70152610405015260008181610266015261139501526120976000f3fe608060405234801561001057600080fd5b50600436106101425760003560e01c80638da5cb5b116100b8578063c7f758a81161007c578063c7f758a8146102ae578063d51d25a2146102d2578063f25699eb146102f9578063f2fde38b1461030c578063fe7b70db1461031f578063ffd740df1461033257600080fd5b80638da5cb5b1461023d578063933c13061461024e578063ace5e98b14610261578063b79d787314610288578063bcfb9b611461029b57600080fd5b8063525fd4411161010a578063525fd441146101cf57806359725d5d146101d9578063623e3d1a146101e25780636b00e76b1461020d5780636b235c8414610220578063715018a61461023557600080fd5b8063013cf08b14610147578063042da775146101745780631c53c2801461018b5780631d9187f4146101be57806339bf397e146101c7575b600080fd5b61015a610155366004611ab7565b610345565b60405161016b959493929190611ad0565b60405180910390f35b61017d60045481565b60405190815260200161016b565b61019e610199366004611ab7565b6103c7565b60408051948552602085019390935291830152606082015260800161016b565b61017d60075481565b60055461017d565b6101d7610401565b005b61017d60015481565b6101f56101f0366004611ab7565b6104ea565b6040516001600160a01b03909116815260200161016b565b6101d761021b366004611b31565b610514565b61022861076e565b60405161016b9190611be9565b6101d76107d0565b6000546001600160a01b03166101f5565b6101d761025c366004611ab7565b6107e4565b6101f57f000000000000000000000000000000000000000000000000000000000000000081565b6101d7610296366004611bfc565b610b80565b6101d76102a9366004611c36565b610d68565b6102c16102bc366004611ab7565b610f39565b60405161016b959493929190611c66565b6101f57f000000000000000000000000000000000000000000000000000000000000000081565b6101d7610307366004611ab7565b611041565b6101d761031a366004611cd1565b611275565b6101d761032d366004611d7f565b6112ee565b6101d7610340366004611ab7565b611380565b6008818154811061035557600080fd5b600091825260209182902060089190910201805460408051608081018252600284015481526003840154948101949094526004830154908401526005820154606084015260068201546007909201546001600160a01b0382169450600160a01b9091046001600160401b031692919085565b600581815481106103d757600080fd5b60009182526020909120600490910201805460018201546002830154600390930154919350919084565b60007f000000000000000000000000000000000000000000000000000000000000000090506000816001600160a01b031663511ee4376040518163ffffffff1660e01b8152600401600060405180830381865afa158015610466573d6000803e3d6000fd5b505050506040513d6000823e601f3d908101601f1916820160405261048e9190810190611e4d565b90506000816040516020016104a39190611be9565b60405160208183030381529060405280519060200120905080600154036104c957505050565b60018190556104d661147b565b6104df82611510565b505060085460075550565b600281815481106104fa57600080fd5b6000918252602090912001546001600160a01b0316905081565b61051d33611551565b6105425760405162461bcd60e51b815260040161053990611edb565b60405180910390fd5b806105825760405162461bcd60e51b815260206004820152601060248201526f6e6f2d6e65772d70726f706f7365727360801b6044820152606401610539565b6101008111156105c95760405162461bcd60e51b8152602060048201526012602482015271746f6f2d6d616e792d70726f706f7365727360701b6044820152606401610539565b60086040518060c00160405280336001600160a01b03168152602001426001600160401b031681526020018484808060200260200160405190810160405280939291908181526020018383602002808284376000920182905250938552505060408051608081018252838152602081810185905281830185905260608083018690528187019290925282860185905294018390528554600181810188559684529284902085516008909402018054868601516001600160401b0316600160a01b026001600160e01b03199091166001600160a01b03909516949094179390931783558401518051949592946106c79493860193919091019150611a23565b50606082810151805160028401556020810151600384015560408101516004840155015160058201556080820151600682015560a09091015160079091015560085460009061071890600190611f17565b90506107258160016115b1565b336001600160a01b0316817f59271bcbab62fa452be76722be8f6daace4f1f607d055dee0998414bc915c22d8585604051610761929190611f30565b60405180910390a3505050565b606060028054806020026020016040519081016040528092919081815260200182805480156107c657602002820191906000526020600020905b81546001600160a01b031681526001909101906020018083116107a8575b5050505050905090565b6107d8611637565b6107e26000611691565b565b60075481101561082a5760405162461bcd60e51b81526020600482015260116024820152701bdd5d19185d19590b5c1c9bdc1bdcd85b607a1b6044820152606401610539565b600854811061086e5760405162461bcd60e51b815260206004820152601060248201526f1b9bcb5cdd58da0b5c1c9bdc1bdcd85b60821b6044820152606401610539565b60006008828154811061088357610883611f7e565b6000918252602090912060089091020180549091506001600160a01b03166108e15760405162461bcd60e51b8152602060048201526011602482015270195e1958dd5d19590b5c1c9bdc1bdcd85b607a1b6044820152606401610539565b600280546000916003916108f491611f94565b6108fe9190611fb3565b9050600061090f83600701546116e1565b9050818110156109545760405162461bcd60e51b815260206004820152601060248201526f6e6f742d656e6f7567682d766f74657360801b6044820152606401610539565b825460009061097390600160a01b90046001600160401b031642611f17565b90506202a30081116109b45760405162461bcd60e51b815260206004820152600a6024820152696e6f742d6d617475726560b01b6044820152606401610539565b62093a8081106109f95760405162461bcd60e51b815260206004820152601060248201526f195e1c1a5c99590b5c1c9bdc1bdcd85b60821b6044820152606401610539565b600184015415610a7b57610a0b61147b565b610a7084600101805480602002602001604051908101604052809291908181526020018280548015610a6657602002820191906000526020600020905b81546001600160a01b03168152600190910190602001808311610a48575b5050505050611510565b600854600755610ae5565b600384015415610ac45760408051608081018252600286015481526003860154602082015260048601549181019190915260058501546060820152610abf9061170a565b610ae5565b6000846006015411610ad857610ad8611fd5565b610ae584600601546117fa565b60088581548110610af857610af8611f7e565b60009182526020822060089091020180546001600160e01b031916815590610b236001830182611a88565b5060006002820181905560038201819055600482018190556005820181905560068201819055600790910181905560405186917f760902578cf40fc10ddf6b953d8b37f6a86ad7a1123c3094f3d6ab75da08132491a25050505050565b610b8933611551565b610ba55760405162461bcd60e51b815260040161053990611edb565b600060405180608001604052806000815260200185815260200184815260200183815250905060086040518060c00160405280336001600160a01b03168152602001426001600160401b0316815260200160006001600160401b03811115610c0f57610c0f611cee565b604051908082528060200260200182016040528015610c38578160200160208202803683370190505b50815260208082018590526000604080840182905260609093018190528454600181810187559582529082902084516008909202018054858401516001600160401b0316600160a01b026001600160e01b03199091166001600160a01b039093169290921791909117815591830151805193949293610cbe938501929190910190611a23565b50606082810151805160028401556020810151600384015560408101516004840155015160058201556080820151600682015560a090910151600790910155600854600090610d0f90600190611f17565b9050610d1c8160016115b1565b6040805186815260208101869052908101849052339082907fe8ba420585a89499b6167b37f7beac327ff6f0b21f44f0024e54a17459e51fc59060600160405180910390a35050505050565b610d7133611551565b610d8d5760405162461bcd60e51b815260040161053990611edb565b600754821015610dd35760405162461bcd60e51b81526020600482015260116024820152701bdd5d19185d19590b5c1c9bdc1bdcd85b607a1b6044820152606401610539565b6008548210610e175760405162461bcd60e51b815260206004820152601060248201526f1b9bcb5cdd58da0b5c1c9bdc1bdcd85b60821b6044820152606401610539565b600060088381548110610e2c57610e2c611f7e565b6000918252602090912060089091020180549091506001600160a01b0316610e8a5760405162461bcd60e51b8152602060048201526011602482015270195e1958dd5d19590b5c1c9bdc1bdcd85b607a1b6044820152606401610539565b8054600090610ea990600160a01b90046001600160401b031642611f17565b905062093a808110610ef05760405162461bcd60e51b815260206004820152601060248201526f195e1c1a5c99590b5c1c9bdc1bdcd85b60821b6044820152606401610539565b610efa84846115b1565b6040518315158152339085907f1c076051e65699422562af80dc299053856695c24ba29b4d03628be79bd19cf49060200160405180910390a350505050565b60408051608081018252600080825260208201819052918101829052606081810183905290600080600060088781548110610f7657610f76611f7e565b6000918252602091829020600890910201805460018201805460408051828702810187019091528181526001600160a01b039093169a509294509092909190830182828015610fee57602002820191906000526020600020905b81546001600160a01b03168152600190910190602001808311610fd0575b50506040805160808101825260028701548152600387015460208201526004870154918101919091526005860154606082015260068601546007909601549a9c949b509994985093965091945050505050565b61104a33611551565b6110665760405162461bcd60e51b815260040161053990611edb565b600081815260066020526040902054600554811080156110a95750816005828154811061109557611095611f7e565b906000526020600020906004020160000154145b6110e45760405162461bcd60e51b815260206004820152600c60248201526b6e6f2d737563682d6e6f646560a01b6044820152606401610539565b6040805160c081018252338152426001600160401b039081166020808401918252845160008082528183018752858701918252865160808082018952828252818501839052978101829052606080820183905287015295850188905260a08501869052600880546001810182559681905285517ff3f7a9fe364faab93b216da50a3214154f22a0a2b415b23a84c8169e8b636ee39790910296870180549451909516600160a01b026001600160e01b03199094166001600160a01b039091161792909217835590518051939492936111e3937ff3f7a9fe364faab93b216da50a3214154f22a0a2b415b23a84c8169e8b636ee401929190910190611a23565b50606082810151805160028401556020810151600384015560408101516004840155015160058201556080820151600682015560a09091015160079091015560085460009061123490600190611f17565b90506112418160016115b1565b604051838152339082907f606c2b55cfa6a5b82e250d8b56b43354df1f52bc025cbb29de75d23888ec74a190602001610761565b61127d611637565b6001600160a01b0381166112e25760405162461bcd60e51b815260206004820152602660248201527f4f776e61626c653a206e6577206f776e657220697320746865207a65726f206160448201526564647265737360d01b6064820152608401610539565b6112eb81611691565b50565b6112f6611637565b6005541561133c5760405162461bcd60e51b8152602060048201526013602482015272185b1c9958591e4b5a5b9a5d1a585b1a5e9959606a1b6044820152606401610539565b60005b815181101561137c5761136a82828151811061135d5761135d611f7e565b602002602001015161170a565b8061137481611feb565b91505061133f565b5050565b60405163562aa20160e01b81523360048201527f00000000000000000000000000000000000000000000000000000000000000006001600160a01b03169063562aa20190602401602060405180830381865afa1580156113e4573d6000803e3d6000fd5b505050506040513d601f19601f820116820180604052508101906114089190612004565b6114425760405162461bcd60e51b815260206004820152600b60248201526a3737ba16b6b7b734ba37b960a91b6044820152606401610539565b61144b816117fa565b604051339082907f4e7ed9da998a80676db81ee87fc8871ef5388ca865745b6f0ec1b4e7f48e6ce890600090a350565b6002545b80156112eb57600360006002611496600185611f17565b815481106114a6576114a6611f7e565b60009182526020808320909101546001600160a01b0316835282019290925260400181205560028054806114dc576114dc612021565b600082815260209020810160001990810180546001600160a01b03191690550190558061150881612037565b91505061147f565b60005b815181101561137c5761153f82828151811061153157611531611f7e565b602002602001015182611977565b8061154981611feb565b915050611513565b6001600160a01b038116600090815260036020526040812054600254158015906115aa5750826001600160a01b03166002828154811061159357611593611f7e565b6000918252602090912001546001600160a01b0316145b9392505050565b33600090815260036020526040902054600160ff82161b82156116015780600885815481106115e2576115e2611f7e565b6000918252602090912060076008909202010180549091179055611631565b80196008858154811061161657611616611f7e565b60009182526020909120600760089092020101805490911690555b50505050565b6000546001600160a01b031633146107e25760405162461bcd60e51b815260206004820181905260248201527f4f776e61626c653a2063616c6c6572206973206e6f7420746865206f776e65726044820152606401610539565b600080546001600160a01b038381166001600160a01b0319831681178455604051919092169283917f8be0079c531659141344cd1fd0a4f28419497f9722a3daafe3b4186f6b6457e09190a35050565b60005b8115611705576116f7600183168261204e565b9050600182901c91506116e4565b919050565b60046000815461171990611feb565b918290555081526005805460018082018355600083905283517f036b6384b5eca791c62761152d0c79bb0604c104a5fb6f4eb0703f3154bb3db060049093029283015560208401517f036b6384b5eca791c62761152d0c79bb0604c104a5fb6f4eb0703f3154bb3db183015560408401517f036b6384b5eca791c62761152d0c79bb0604c104a5fb6f4eb0703f3154bb3db283015560608401517f036b6384b5eca791c62761152d0c79bb0604c104a5fb6f4eb0703f3154bb3db39092019190915590546117e79190611f17565b9051600090815260066020526040902055565b6000818152600660205260409020546005548110801561183d5750816005828154811061182957611829611f7e565b906000526020600020906004020160000154145b6118785760405162461bcd60e51b815260206004820152600c60248201526b6e6f2d737563682d6e6f646560a01b6044820152606401610539565b60055460009061188a90600190611f17565b600554909150600110801561189f5750808214155b15611924576000600582815481106118b9576118b9611f7e565b9060005260206000209060040201905080600584815481106118dd576118dd611f7e565b600091825260208083208454600490930201918255600180850154908301556002808501549083015560039384015493909101929092559154825260069052604090208290555b600580548061193557611935612021565b60008281526020808220600460001990940193840201828155600181018390556002810183905560030182905591909255938152600690935250506040812055565b61198082611551565b156119c35760405162461bcd60e51b8152602060048201526013602482015272323ab83634b1b0ba32b216b83937b837b9b2b960691b6044820152606401610539565b6001600160a01b039091166000818152600360205260408120929092556002805460018101825592527f405787fa12a823e0f2b7631cc41b3ba8828b3321ca811111fa75cd3aa3bb5ace90910180546001600160a01b0319169091179055565b828054828255906000526020600020908101928215611a78579160200282015b82811115611a7857825182546001600160a01b0319166001600160a01b03909116178255602090920191600190910190611a43565b50611a84929150611aa2565b5090565b50805460008255906000526020600020908101906112eb91905b5b80821115611a845760008155600101611aa3565b600060208284031215611ac957600080fd5b5035919050565b6001600160a01b03861681526001600160401b03851660208201526101008101611b1e6040830186805182526020810151602083015260408101516040830152606081015160608301525050565b60c082019390935260e001529392505050565b60008060208385031215611b4457600080fd5b82356001600160401b0380821115611b5b57600080fd5b818501915085601f830112611b6f57600080fd5b813581811115611b7e57600080fd5b8660208260051b8501011115611b9357600080fd5b60209290920196919550909350505050565b600081518084526020808501945080840160005b83811015611bde5781516001600160a01b031687529582019590820190600101611bb9565b509495945050505050565b6020815260006115aa6020830184611ba5565b600080600060608486031215611c1157600080fd5b505081359360208301359350604090920135919050565b80151581146112eb57600080fd5b60008060408385031215611c4957600080fd5b823591506020830135611c5b81611c28565b809150509250929050565b6001600160a01b038616815261010060208201819052600090611c8b83820188611ba5565b915050611b1e6040830186805182526020810151602083015260408101516040830152606081015160608301525050565b6001600160a01b03811681146112eb57600080fd5b600060208284031215611ce357600080fd5b81356115aa81611cbc565b634e487b7160e01b600052604160045260246000fd5b604051608081016001600160401b0381118282101715611d2657611d26611cee565b60405290565b604051601f8201601f191681016001600160401b0381118282101715611d5457611d54611cee565b604052919050565b60006001600160401b03821115611d7557611d75611cee565b5060051b60200190565b60006020808385031215611d9257600080fd5b82356001600160401b03811115611da857600080fd5b8301601f81018513611db957600080fd5b8035611dcc611dc782611d5c565b611d2c565b81815260079190911b82018301908381019087831115611deb57600080fd5b928401925b82841015611e425760808489031215611e095760008081fd5b611e11611d04565b8435815285850135868201526040808601359082015260608086013590820152825260809093019290840190611df0565b979650505050505050565b60006020808385031215611e6057600080fd5b82516001600160401b03811115611e7657600080fd5b8301601f81018513611e8757600080fd5b8051611e95611dc782611d5c565b81815260059190911b82018301908381019087831115611eb457600080fd5b928401925b82841015611e42578351611ecc81611cbc565b82529284019290840190611eb9565b6020808252600c908201526b3737ba16b83937b837b9b2b960a11b604082015260600190565b634e487b7160e01b600052601160045260246000fd5b81810381811115611f2a57611f2a611f01565b92915050565b60208082528181018390526000908460408401835b86811015611f73578235611f5881611cbc565b6001600160a01b031682529183019190830190600101611f45565b509695505050505050565b634e487b7160e01b600052603260045260246000fd5b6000816000190483118215151615611fae57611fae611f01565b500290565b600082611fd057634e487b7160e01b600052601260045260246000fd5b500490565b634e487b7160e01b600052600160045260246000fd5b600060018201611ffd57611ffd611f01565b5060010190565b60006020828403121561201657600080fd5b81516115aa81611c28565b634e487b7160e01b600052603160045260246000fd5b60008161204657612046611f01565b506000190190565b80820180821115611f2a57611f2a611f0156fea26469706673582212201592f8a0cdd47b08cb818b4f8805312f090a775a82f64ba581cf64bfbf9c0ed164736f6c63430008100033",
  "linkReferences": {},
  "deployedLinkReferences": {}
}