{
  "_format": "hh-sol-artifact-1",
  "contractName": "CCSbchNodesGov",
  "sourceName": "contracts/CCSbchNodesGov.sol",
  "abi": [
    {
      "inputs": [
        {
          "internalType": "address",
          "name": "monitorsGovAddr",
          "type": "address"
        },
        {
          "internalType": "address",
          "name": "operatorsGovAddr",
          "type": "address"
        },
        {
          "internalType": "address[]",
          "name": "_proposers",
          "type": "address[]"
        }
      ],
      "stateMutability": "nonpayable",
      "type": "constructor"
    },
    {
      "anonymous": false,
      "inputs": [
        {
          "indexed": true,
          "internalType": "uint256",
          "name": "id",
          "type": "uint256"
        }
      ],
      "name": "ExecProposal",
      "type": "event"
    },
    {
      "anonymous": false,
      "inputs": [
        {
          "indexed": true,
          "internalType": "address",
          "name": "previousOwner",
          "type": "address"
        },
        {
          "indexed": true,
          "internalType": "address",
          "name": "newOwner",
          "type": "address"
        }
      ],
      "name": "OwnershipTransferred",
      "type": "event"
    },
    {
      "anonymous": false,
      "inputs": [
        {
          "indexed": true,
          "internalType": "uint256",
          "name": "id",
          "type": "uint256"
        },
        {
          "indexed": true,
          "internalType": "address",
          "name": "proposer",
          "type": "address"
        },
        {
          "indexed": false,
          "internalType": "bytes32",
          "name": "pubkeyHash",
          "type": "bytes32"
        },
        {
          "indexed": false,
          "internalType": "bytes32",
          "name": "rpcUrl",
          "type": "bytes32"
        },
        {
          "indexed": false,
          "internalType": "bytes32",
          "name": "intro",
          "type": "bytes32"
        }
      ],
      "name": "ProposeNewNode",
      "type": "event"
    },
    {
      "anonymous": false,
      "inputs": [
        {
          "indexed": true,
          "internalType": "uint256",
          "name": "id",
          "type": "uint256"
        },
        {
          "indexed": true,
          "internalType": "address",
          "name": "proposer",
          "type": "address"
        },
        {
          "indexed": false,
          "internalType": "address[]",
          "name": "newProposers",
          "type": "address[]"
        }
      ],
      "name": "ProposeNewProposers",
      "type": "event"
    },
    {
      "anonymous": false,
      "inputs": [
        {
          "indexed": true,
          "internalType": "uint256",
          "name": "id",
          "type": "uint256"
        },
        {
          "indexed": true,
          "internalType": "address",
          "name": "proposer",
          "type": "address"
        },
        {
          "indexed": false,
          "internalType": "uint256",
          "name": "nodeId",
          "type": "uint256"
        }
      ],
      "name": "ProposeObsoleteNode",
      "type": "event"
    },
    {
      "anonymous": false,
      "inputs": [
        {
          "indexed": true,
          "internalType": "uint256",
          "name": "nodeId",
          "type": "uint256"
        },
        {
          "indexed": true,
          "internalType": "address",
          "name": "monitor",
          "type": "address"
        }
      ],
      "name": "RemoveNodeByMonitor",
      "type": "event"
    },
    {
      "anonymous": false,
      "inputs": [
        {
          "indexed": true,
          "internalType": "uint256",
          "name": "id",
          "type": "uint256"
        },
        {
          "indexed": true,
          "internalType": "address",
          "name": "voter",
          "type": "address"
        },
        {
          "indexed": false,
          "internalType": "bool",
          "name": "agreed",
          "type": "bool"
        }
      ],
      "name": "VoteProposal",
      "type": "event"
    },
    {
      "inputs": [],
      "name": "MONITORS_GOV_ADDR",
      "outputs": [
        {
          "internalType": "address",
          "name": "",
          "type": "address"
        }
      ],
      "stateMutability": "view",
      "type": "function"
    },
    {
      "inputs": [],
      "name": "OPERATORS_GOV_ADDR",
      "outputs": [
        {
          "internalType": "address",
          "name": "",
          "type": "address"
        }
      ],
      "stateMutability": "view",
      "type": "function"
    },
    {
      "inputs": [
        {
          "internalType": "uint256",
          "name": "id",
          "type": "uint256"
        }
      ],
      "name": "execProposal",
      "outputs": [],
      "stateMutability": "nonpayable",
      "type": "function"
    },
    {
      "inputs": [],
      "name": "getAllProposers",
      "outputs": [
        {
          "internalType": "address[]",
          "name": "_proposers",
          "type": "address[]"
        }
      ],
      "stateMutability": "view",
      "type": "function"
    },
    {
      "inputs": [],
      "name": "getNodeCount",
      "outputs": [
        {
          "internalType": "uint256",
          "name": "",
          "type": "uint256"
        }
      ],
      "stateMutability": "view",
      "type": "function"
    },
    {
      "inputs": [
        {
          "internalType": "uint256",
          "name": "id",
          "type": "uint256"
        }
      ],
      "name": "getProposal",
      "outputs": [
        {
          "internalType": "address",
          "name": "proposer",
          "type": "address"
        },
        {
          "internalType": "uint64",
          "name": "createdTime",
          "type": "uint64"
        },
        {
          "internalType": "address[]",
          "name": "newProposers",
          "type": "address[]"
        },
        {
          "components": [
            {
              "internalType": "uint256",
              "name": "id",
              "type": "uint256"
            },
            {
              "internalType": "bytes32",
              "name": "pubkeyHash",
              "type": "bytes32"
            },
            {
              "internalType": "bytes32",
              "name": "rpcUrl",
              "type": "bytes32"
            },
            {
              "internalType": "bytes32",
              "name": "intro",
              "type": "bytes32"
            }
          ],
          "internalType": "struct NodeInfo",
          "name": "newNode",
          "type": "tuple"
        },
        {
          "internalType": "uint256",
          "name": "obsoleteNodeId",
          "type": "uint256"
        },
        {
          "internalType": "uint256",
          "name": "votes",
          "type": "uint256"
        }
      ],
      "stateMutability": "view",
      "type": "function"
    },
    {
      "inputs": [
        {
          "components": [
            {
              "internalType": "uint256",
              "name": "id",
              "type": "uint256"
            },
            {
              "internalType": "bytes32",
              "name": "pubkeyHash",
              "type": "bytes32"
            },
            {
              "internalType": "bytes32",
              "name": "rpcUrl",
              "type": "bytes32"
            },
            {
              "internalType": "bytes32",
              "name": "intro",
              "type": "bytes32"
            }
          ],
          "internalType": "struct NodeInfo[]",
          "name": "nodeList",
          "type": "tuple[]"
        }
      ],
      "name": "init",
      "outputs": [],
      "stateMutability": "nonpayable",
      "type": "function"
    },
    {
      "inputs": [],
      "name": "lastNodeId",
      "outputs": [
        {
          "internalType": "uint256",
          "name": "",
          "type": "uint256"
        }
      ],
      "stateMutability": "view",
      "type": "function"
    },
    {
      "inputs": [],
      "name": "minProposalId",
      "outputs": [
        {
          "internalType": "uint256",
          "name": "",
          "type": "uint256"
        }
      ],
      "stateMutability": "view",
      "type": "function"
    },
    {
      "inputs": [
        {
          "internalType": "uint256",
          "name": "",
          "type": "uint256"
        }
      ],
      "name": "nodes",
      "outputs": [
        {
          "internalType": "uint256",
          "name": "id",
          "type": "uint256"
        },
        {
          "internalType": "bytes32",
          "name": "pubkeyHash",
          "type": "bytes32"
        },
        {
          "internalType": "bytes32",
          "name": "rpcUrl",
          "type": "bytes32"
        },
        {
          "internalType": "bytes32",
          "name": "intro",
          "type": "bytes32"
        }
      ],
      "stateMutability": "view",
      "type": "function"
    },
    {
      "inputs": [],
      "name": "owner",
      "outputs": [
        {
          "internalType": "address",
          "name": "",
          "type": "address"
        }
      ],
      "stateMutability": "view",
      "type": "function"
    },
    {
      "inputs": [
        {
          "internalType": "uint256",
          "name": "",
          "type": "uint256"
        }
      ],
      "name": "proposals",
      "outputs": [
        {
          "internalType": "address",
          "name": "proposer",
          "type": "address"
        },
        {
          "internalType": "uint64",
          "name": "createdTime",
          "type": "uint64"
        },
        {
          "components": [
            {
              "internalType": "uint256",
              "name": "id",
              "type": "uint256"
            },
            {
              "internalType": "bytes32",
              "name": "pubkeyHash",
              "type": "bytes32"
            },
            {
              "internalType": "bytes32",
              "name": "rpcUrl",
              "type": "bytes32"
            },
            {
              "internalType": "bytes32",
              "name": "intro",
              "type": "bytes32"
            }
          ],
          "internalType": "struct NodeInfo",
          "name": "newNode",
          "type": "tuple"
        },
        {
          "internalType": "uint256",
          "name": "obsoleteNodeId",
          "type": "uint256"
        },
        {
          "internalType": "uint256",
          "name": "votes",
          "type": "uint256"
        }
      ],
      "stateMutability": "view",
      "type": "function"
    },
    {
      "inputs": [
        {
          "internalType": "bytes32",
          "name": "pubkeyHash",
          "type": "bytes32"
        },
        {
          "internalType": "bytes32",
          "name": "rpcUrl",
          "type": "bytes32"
        },
        {
          "internalType": "bytes32",
          "name": "intro",
          "type": "bytes32"
        }
      ],
      "name": "proposeNewNode",
      "outputs": [],
      "stateMutability": "nonpayable",
      "type": "function"
    },
    {
      "inputs": [
        {
          "internalType": "address[]",
          "name": "newProposers",
          "type": "address[]"
        }
      ],
      "name": "proposeNewProposers",
      "outputs": [],
      "stateMutability": "nonpayable",
      "type": "function"
    },
    {
      "inputs": [
        {
          "internalType": "uint256",
          "name": "nodeId",
          "type": "uint256"
        }
      ],
      "name": "proposeObsoleteNode",
      "outputs": [],
      "stateMutability": "nonpayable",
      "type": "function"
    },
    {
      "inputs": [
        {
          "internalType": "uint256",
          "name": "",
          "type": "uint256"
        }
      ],
      "name": "proposers",
      "outputs": [
        {
          "internalType": "address",
          "name": "",
          "type": "address"
        }
      ],
      "stateMutability": "view",
      "type": "function"
    },
    {
      "inputs": [
        {
          "internalType": "uint256",
          "name": "id",
          "type": "uint256"
        }
      ],
      "name": "removeNode",
      "outputs": [],
      "stateMutability": "nonpayable",
      "type": "function"
    },
    {
      "inputs": [],
      "name": "renounceOwnership",
      "outputs": [],
      "stateMutability": "nonpayable",
      "type": "function"
    },
    {
      "inputs": [],
      "name": "syncProposers",
      "outputs": [],
      "stateMutability": "nonpayable",
      "type": "function"
    },
    {
      "inputs": [],
      "name": "syncProposersHash",
      "outputs": [
        {
          "internalType": "bytes32",
          "name": "",
          "type": "bytes32"
        }
      ],
      "stateMutability": "view",
      "type": "function"
    },
    {
      "inputs": [
        {
          "internalType": "address",
          "name": "newOwner",
          "type": "address"
        }
      ],
      "name": "transferOwnership",
      "outputs": [],
      "stateMutability": "nonpayable",
      "type": "function"
    },
    {
      "inputs": [
        {
          "internalType": "uint256",
          "name": "id",
          "type": "uint256"
        },
        {
          "internalType": "bool",
          "name": "agreed",
          "type": "bool"
        }
      ],
      "name": "voteProposal",
      "outputs": [],
      "stateMutability": "nonpayable",
      "type": "function"
    }
  ],
  "bytecode": "0x60c06040523480156200001157600080fd5b5060405162002516380380620025168339810160408190526200003491620002e8565b6200003f33620000f3565b6001600160a01b03808416608052821660a0528051620000955760405162461bcd60e51b815260206004820152600c60248201526b6e6f2d70726f706f7365727360a01b60448201526064015b60405180910390fd5b61010081511115620000df5760405162461bcd60e51b8152602060048201526012602482015271746f6f2d6d616e792d70726f706f7365727360701b60448201526064016200008c565b620000ea8162000143565b50505062000420565b600080546001600160a01b038381166001600160a01b0319831681178455604051919092169283917f8be0079c531659141344cd1fd0a4f28419497f9722a3daafe3b4186f6b6457e09190a35050565b60005b815181101562000193576200017e828281518110620001695762000169620003e2565b6020026020010151826200019760201b60201c565b806200018a81620003f8565b91505062000146565b5050565b620001a28262000251565b15620001f15760405162461bcd60e51b815260206004820152601360248201527f6475706c6963617465642d70726f706f7365720000000000000000000000000060448201526064016200008c565b6001600160a01b039091166000818152600360205260408120929092556002805460018101825592527f405787fa12a823e0f2b7631cc41b3ba8828b3321ca811111fa75cd3aa3bb5ace90910180546001600160a01b0319169091179055565b6001600160a01b03811660009081526003602052604081205460025415801590620002ae5750826001600160a01b031660028281548110620002975762000297620003e2565b6000918252602090912001546001600160a01b0316145b9392505050565b80516001600160a01b0381168114620002cd57600080fd5b919050565b634e487b7160e01b600052604160045260246000fd5b600080600060608486031215620002fe57600080fd5b6200030984620002b5565b925060206200031a818601620002b5565b60408601519093506001600160401b03808211156200033857600080fd5b818701915087601f8301126200034d57600080fd5b815181811115620003625762000362620002d2565b8060051b604051601f19603f830116810181811085821117156200038a576200038a620002d2565b60405291825284820192508381018501918a831115620003a957600080fd5b938501935b82851015620003d257620003c285620002b5565b84529385019392850192620003ae565b8096505050505050509250925092565b634e487b7160e01b600052603260045260246000fd5b6000600182016200041957634e487b7160e01b600052601160045260246000fd5b5060010190565b60805160a0516120c262000454600039600081816102d80152610406015260008181610266015261139c01526120c26000f3fe608060405234801561001057600080fd5b50600436106101425760003560e01c80638da5cb5b116100b8578063c7f758a81161007c578063c7f758a8146102ae578063d51d25a2146102d3578063f25699eb146102fa578063f2fde38b1461030d578063fe7b70db14610320578063ffd740df1461033357600080fd5b80638da5cb5b1461023d578063933c13061461024e578063ace5e98b14610261578063b79d787314610288578063bcfb9b611461029b57600080fd5b8063525fd4411161010a578063525fd441146101cf57806359725d5d146101d9578063623e3d1a146101e25780636b00e76b1461020d5780636b235c8414610220578063715018a61461023557600080fd5b8063013cf08b14610147578063042da775146101745780631c53c2801461018b5780631d9187f4146101be57806339bf397e146101c7575b600080fd5b61015a610155366004611abe565b610346565b60405161016b959493929190611ad7565b60405180910390f35b61017d60045481565b60405190815260200161016b565b61019e610199366004611abe565b6103c8565b60408051948552602085019390935291830152606082015260800161016b565b61017d60075481565b60055461017d565b6101d7610402565b005b61017d60015481565b6101f56101f0366004611abe565b6104eb565b6040516001600160a01b03909116815260200161016b565b6101d761021b366004611b38565b610515565b61022861076f565b60405161016b9190611bf0565b6101d76107d1565b6000546001600160a01b03166101f5565b6101d761025c366004611abe565b6107e5565b6101f57f000000000000000000000000000000000000000000000000000000000000000081565b6101d7610296366004611c03565b610b81565b6101d76102a9366004611c3d565b610d69565b6102c16102bc366004611abe565b610f3a565b60405161016b96959493929190611c6d565b6101f57f000000000000000000000000000000000000000000000000000000000000000081565b6101d7610308366004611abe565b611048565b6101d761031b366004611cfc565b61127c565b6101d761032e366004611daa565b6112f5565b6101d7610341366004611abe565b611387565b6008818154811061035657600080fd5b600091825260209182902060089190910201805460408051608081018252600284015481526003840154948101949094526004830154908401526005820154606084015260068201546007909201546001600160a01b0382169450600160a01b9091046001600160401b031692919085565b600581815481106103d857600080fd5b60009182526020909120600490910201805460018201546002830154600390930154919350919084565b60007f000000000000000000000000000000000000000000000000000000000000000090506000816001600160a01b031663511ee4376040518163ffffffff1660e01b8152600401600060405180830381865afa158015610467573d6000803e3d6000fd5b505050506040513d6000823e601f3d908101601f1916820160405261048f9190810190611e78565b90506000816040516020016104a49190611bf0565b60405160208183030381529060405280519060200120905080600154036104ca57505050565b60018190556104d7611482565b6104e082611517565b505060085460075550565b600281815481106104fb57600080fd5b6000918252602090912001546001600160a01b0316905081565b61051e33611558565b6105435760405162461bcd60e51b815260040161053a90611f06565b60405180910390fd5b806105835760405162461bcd60e51b815260206004820152601060248201526f6e6f2d6e65772d70726f706f7365727360801b604482015260640161053a565b6101008111156105ca5760405162461bcd60e51b8152602060048201526012602482015271746f6f2d6d616e792d70726f706f7365727360701b604482015260640161053a565b60086040518060c00160405280336001600160a01b03168152602001426001600160401b031681526020018484808060200260200160405190810160405280939291908181526020018383602002808284376000920182905250938552505060408051608081018252838152602081810185905281830185905260608083018690528187019290925282860185905294018390528554600181810188559684529284902085516008909402018054868601516001600160401b0316600160a01b026001600160e01b03199091166001600160a01b03909516949094179390931783558401518051949592946106c89493860193919091019150611a2a565b50606082810151805160028401556020810151600384015560408101516004840155015160058201556080820151600682015560a09091015160079091015560085460009061071990600190611f42565b90506107268160016115b8565b336001600160a01b0316817f59271bcbab62fa452be76722be8f6daace4f1f607d055dee0998414bc915c22d8585604051610762929190611f5b565b60405180910390a3505050565b606060028054806020026020016040519081016040528092919081815260200182805480156107c757602002820191906000526020600020905b81546001600160a01b031681526001909101906020018083116107a9575b5050505050905090565b6107d961163e565b6107e36000611698565b565b60075481101561082b5760405162461bcd60e51b81526020600482015260116024820152701bdd5d19185d19590b5c1c9bdc1bdcd85b607a1b604482015260640161053a565b600854811061086f5760405162461bcd60e51b815260206004820152601060248201526f1b9bcb5cdd58da0b5c1c9bdc1bdcd85b60821b604482015260640161053a565b60006008828154811061088457610884611fa9565b6000918252602090912060089091020180549091506001600160a01b03166108e25760405162461bcd60e51b8152602060048201526011602482015270195e1958dd5d19590b5c1c9bdc1bdcd85b607a1b604482015260640161053a565b600280546000916003916108f591611fbf565b6108ff9190611fde565b9050600061091083600701546116e8565b9050818110156109555760405162461bcd60e51b815260206004820152601060248201526f6e6f742d656e6f7567682d766f74657360801b604482015260640161053a565b825460009061097490600160a01b90046001600160401b031642611f42565b90506202a30081116109b55760405162461bcd60e51b815260206004820152600a6024820152696e6f742d6d617475726560b01b604482015260640161053a565b62093a8081106109fa5760405162461bcd60e51b815260206004820152601060248201526f195e1c1a5c99590b5c1c9bdc1bdcd85b60821b604482015260640161053a565b600184015415610a7c57610a0c611482565b610a7184600101805480602002602001604051908101604052809291908181526020018280548015610a6757602002820191906000526020600020905b81546001600160a01b03168152600190910190602001808311610a49575b5050505050611517565b600854600755610ae6565b600384015415610ac55760408051608081018252600286015481526003860154602082015260048601549181019190915260058501546060820152610ac090611711565b610ae6565b6000846006015411610ad957610ad9612000565b610ae68460060154611801565b60088581548110610af957610af9611fa9565b60009182526020822060089091020180546001600160e01b031916815590610b246001830182611a8f565b5060006002820181905560038201819055600482018190556005820181905560068201819055600790910181905560405186917f760902578cf40fc10ddf6b953d8b37f6a86ad7a1123c3094f3d6ab75da08132491a25050505050565b610b8a33611558565b610ba65760405162461bcd60e51b815260040161053a90611f06565b600060405180608001604052806000815260200185815260200184815260200183815250905060086040518060c00160405280336001600160a01b03168152602001426001600160401b0316815260200160006001600160401b03811115610c1057610c10611d19565b604051908082528060200260200182016040528015610c39578160200160208202803683370190505b50815260208082018590526000604080840182905260609093018190528454600181810187559582529082902084516008909202018054858401516001600160401b0316600160a01b026001600160e01b03199091166001600160a01b039093169290921791909117815591830151805193949293610cbf938501929190910190611a2a565b50606082810151805160028401556020810151600384015560408101516004840155015160058201556080820151600682015560a090910151600790910155600854600090610d1090600190611f42565b9050610d1d8160016115b8565b6040805186815260208101869052908101849052339082907fe8ba420585a89499b6167b37f7beac327ff6f0b21f44f0024e54a17459e51fc59060600160405180910390a35050505050565b610d7233611558565b610d8e5760405162461bcd60e51b815260040161053a90611f06565b600754821015610dd45760405162461bcd60e51b81526020600482015260116024820152701bdd5d19185d19590b5c1c9bdc1bdcd85b607a1b604482015260640161053a565b6008548210610e185760405162461bcd60e51b815260206004820152601060248201526f1b9bcb5cdd58da0b5c1c9bdc1bdcd85b60821b604482015260640161053a565b600060088381548110610e2d57610e2d611fa9565b6000918252602090912060089091020180549091506001600160a01b0316610e8b5760405162461bcd60e51b8152602060048201526011602482015270195e1958dd5d19590b5c1c9bdc1bdcd85b607a1b604482015260640161053a565b8054600090610eaa90600160a01b90046001600160401b031642611f42565b905062093a808110610ef15760405162461bcd60e51b815260206004820152601060248201526f195e1c1a5c99590b5c1c9bdc1bdcd85b60821b604482015260640161053a565b610efb84846115b8565b6040518315158152339085907f1c076051e65699422562af80dc299053856695c24ba29b4d03628be79bd19cf49060200160405180910390a350505050565b6040805160808101825260008082526020820181905291810182905260608181018390528291600080600060088881548110610f7857610f78611fa9565b6000918252602091829020600890910201805460018201805460408051828702810187019091528181526001600160a01b039093169b509294509092909190830182828015610ff057602002820191906000526020600020905b81546001600160a01b03168152600190910190602001808311610fd2575b5050505050945080600201604051806080016040529081600082015481526020016001820154815260200160028201548152602001600382015481525050935080600601549250806007015491505091939550919395565b61105133611558565b61106d5760405162461bcd60e51b815260040161053a90611f06565b600081815260066020526040902054600554811080156110b05750816005828154811061109c5761109c611fa9565b906000526020600020906004020160000154145b6110eb5760405162461bcd60e51b815260206004820152600c60248201526b6e6f2d737563682d6e6f646560a01b604482015260640161053a565b6040805160c081018252338152426001600160401b039081166020808401918252845160008082528183018752858701918252865160808082018952828252818501839052978101829052606080820183905287015295850188905260a08501869052600880546001810182559681905285517ff3f7a9fe364faab93b216da50a3214154f22a0a2b415b23a84c8169e8b636ee39790910296870180549451909516600160a01b026001600160e01b03199094166001600160a01b039091161792909217835590518051939492936111ea937ff3f7a9fe364faab93b216da50a3214154f22a0a2b415b23a84c8169e8b636ee401929190910190611a2a565b50606082810151805160028401556020810151600384015560408101516004840155015160058201556080820151600682015560a09091015160079091015560085460009061123b90600190611f42565b90506112488160016115b8565b604051838152339082907f606c2b55cfa6a5b82e250d8b56b43354df1f52bc025cbb29de75d23888ec74a190602001610762565b61128461163e565b6001600160a01b0381166112e95760405162461bcd60e51b815260206004820152602660248201527f4f776e61626c653a206e6577206f776e657220697320746865207a65726f206160448201526564647265737360d01b606482015260840161053a565b6112f281611698565b50565b6112fd61163e565b600554156113435760405162461bcd60e51b8152602060048201526013602482015272185b1c9958591e4b5a5b9a5d1a585b1a5e9959606a1b604482015260640161053a565b60005b81518110156113835761137182828151811061136457611364611fa9565b6020026020010151611711565b8061137b81612016565b915050611346565b5050565b60405163562aa20160e01b81523360048201527f00000000000000000000000000000000000000000000000000000000000000006001600160a01b03169063562aa20190602401602060405180830381865afa1580156113eb573d6000803e3d6000fd5b505050506040513d601f19601f8201168201806040525081019061140f919061202f565b6114495760405162461bcd60e51b815260206004820152600b60248201526a3737ba16b6b7b734ba37b960a91b604482015260640161053a565b61145281611801565b604051339082907f4e7ed9da998a80676db81ee87fc8871ef5388ca865745b6f0ec1b4e7f48e6ce890600090a350565b6002545b80156112f25760036000600261149d600185611f42565b815481106114ad576114ad611fa9565b60009182526020808320909101546001600160a01b0316835282019290925260400181205560028054806114e3576114e361204c565b600082815260209020810160001990810180546001600160a01b03191690550190558061150f81612062565b915050611486565b60005b81518110156113835761154682828151811061153857611538611fa9565b60200260200101518261197e565b8061155081612016565b91505061151a565b6001600160a01b038116600090815260036020526040812054600254158015906115b15750826001600160a01b03166002828154811061159a5761159a611fa9565b6000918252602090912001546001600160a01b0316145b9392505050565b33600090815260036020526040902054600160ff82161b82156116085780600885815481106115e9576115e9611fa9565b6000918252602090912060076008909202010180549091179055611638565b80196008858154811061161d5761161d611fa9565b60009182526020909120600760089092020101805490911690555b50505050565b6000546001600160a01b031633146107e35760405162461bcd60e51b815260206004820181905260248201527f4f776e61626c653a2063616c6c6572206973206e6f7420746865206f776e6572604482015260640161053a565b600080546001600160a01b038381166001600160a01b0319831681178455604051919092169283917f8be0079c531659141344cd1fd0a4f28419497f9722a3daafe3b4186f6b6457e09190a35050565b60005b811561170c576116fe6001831682612079565b9050600182901c91506116eb565b919050565b60046000815461172090612016565b918290555081526005805460018082018355600083905283517f036b6384b5eca791c62761152d0c79bb0604c104a5fb6f4eb0703f3154bb3db060049093029283015560208401517f036b6384b5eca791c62761152d0c79bb0604c104a5fb6f4eb0703f3154bb3db183015560408401517f036b6384b5eca791c62761152d0c79bb0604c104a5fb6f4eb0703f3154bb3db283015560608401517f036b6384b5eca791c62761152d0c79bb0604c104a5fb6f4eb0703f3154bb3db39092019190915590546117ee9190611f42565b9051600090815260066020526040902055565b600081815260066020526040902054600554811080156118445750816005828154811061183057611830611fa9565b906000526020600020906004020160000154145b61187f5760405162461bcd60e51b815260206004820152600c60248201526b6e6f2d737563682d6e6f646560a01b604482015260640161053a565b60055460009061189190600190611f42565b60055490915060011080156118a65750808214155b1561192b576000600582815481106118c0576118c0611fa9565b9060005260206000209060040201905080600584815481106118e4576118e4611fa9565b600091825260208083208454600490930201918255600180850154908301556002808501549083015560039384015493909101929092559154825260069052604090208290555b600580548061193c5761193c61204c565b60008281526020808220600460001990940193840201828155600181018390556002810183905560030182905591909255938152600690935250506040812055565b61198782611558565b156119ca5760405162461bcd60e51b8152602060048201526013602482015272323ab83634b1b0ba32b216b83937b837b9b2b960691b604482015260640161053a565b6001600160a01b039091166000818152600360205260408120929092556002805460018101825592527f405787fa12a823e0f2b7631cc41b3ba8828b3321ca811111fa75cd3aa3bb5ace90910180546001600160a01b0319169091179055565b828054828255906000526020600020908101928215611a7f579160200282015b82811115611a7f57825182546001600160a01b0319166001600160a01b03909116178255602090920191600190910190611a4a565b50611a8b929150611aa9565b5090565b50805460008255906000526020600020908101906112f291905b5b80821115611a8b5760008155600101611aaa565b600060208284031215611ad057600080fd5b5035919050565b6001600160a01b03861681526001600160401b03851660208201526101008101611b256040830186805182526020810151602083015260408101516040830152606081015160608301525050565b60c082019390935260e001529392505050565b60008060208385031215611b4b57600080fd5b82356001600160401b0380821115611b6257600080fd5b818501915085601f830112611b7657600080fd5b813581811115611b8557600080fd5b8660208260051b8501011115611b9a57600080fd5b60209290920196919550909350505050565b600081518084526020808501945080840160005b83811015611be55781516001600160a01b031687529582019590820190600101611bc0565b509495945050505050565b6020815260006115b16020830184611bac565b600080600060608486031215611c1857600080fd5b505081359360208301359350604090920135919050565b80151581146112f257600080fd5b60008060408385031215611c5057600080fd5b823591506020830135611c6281611c2f565b809150509250929050565b6001600160a01b03871681526001600160401b038616602082015261012060408201819052600090611ca183820188611bac565b915050611cd26060830186805182526020810151602083015260408101516040830152606081015160608301525050565b60e08201939093526101000152949350505050565b6001600160a01b03811681146112f257600080fd5b600060208284031215611d0e57600080fd5b81356115b181611ce7565b634e487b7160e01b600052604160045260246000fd5b604051608081016001600160401b0381118282101715611d5157611d51611d19565b60405290565b604051601f8201601f191681016001600160401b0381118282101715611d7f57611d7f611d19565b604052919050565b60006001600160401b03821115611da057611da0611d19565b5060051b60200190565b60006020808385031215611dbd57600080fd5b82356001600160401b03811115611dd357600080fd5b8301601f81018513611de457600080fd5b8035611df7611df282611d87565b611d57565b81815260079190911b82018301908381019087831115611e1657600080fd5b928401925b82841015611e6d5760808489031215611e345760008081fd5b611e3c611d2f565b8435815285850135868201526040808601359082015260608086013590820152825260809093019290840190611e1b565b979650505050505050565b60006020808385031215611e8b57600080fd5b82516001600160401b03811115611ea157600080fd5b8301601f81018513611eb257600080fd5b8051611ec0611df282611d87565b81815260059190911b82018301908381019087831115611edf57600080fd5b928401925b82841015611e6d578351611ef781611ce7565b82529284019290840190611ee4565b6020808252600c908201526b3737ba16b83937b837b9b2b960a11b604082015260600190565b634e487b7160e01b600052601160045260246000fd5b81810381811115611f5557611f55611f2c565b92915050565b60208082528181018390526000908460408401835b86811015611f9e578235611f8381611ce7565b6001600160a01b031682529183019190830190600101611f70565b509695505050505050565b634e487b7160e01b600052603260045260246000fd5b6000816000190483118215151615611fd957611fd9611f2c565b500290565b600082611ffb57634e487b7160e01b600052601260045260246000fd5b500490565b634e487b7160e01b600052600160045260246000fd5b60006001820161202857612028611f2c565b5060010190565b60006020828403121561204157600080fd5b81516115b181611c2f565b634e487b7160e01b600052603160045260246000fd5b60008161207157612071611f2c565b506000190190565b80820180821115611f5557611f55611f2c56fea264697066735822122080203889feb6c44addc466c2396ee88437ce1a1fd561bc85527d7dce7185e76464736f6c63430008100033",
  "linkReferences": {},
  "deployedLinkReferences": {}
}